{
  "contractName": "BasedSigmaToken",
  "abi": [
    {
      "inputs": [],
      "stateMutability": "nonpayable",
      "type": "constructor"
    },
    {
      "inputs": [
        {
          "internalType": "address",
          "name": "spender",
          "type": "address"
        },
        {
          "internalType": "uint256",
          "name": "allowance",
          "type": "uint256"
        },
        {
          "internalType": "uint256",
          "name": "needed",
          "type": "uint256"
        }
      ],
      "name": "ERC20InsufficientAllowance",
      "type": "error"
    },
    {
      "inputs": [
        {
          "internalType": "address",
          "name": "sender",
          "type": "address"
        },
        {
          "internalType": "uint256",
          "name": "balance",
          "type": "uint256"
        },
        {
          "internalType": "uint256",
          "name": "needed",
          "type": "uint256"
        }
      ],
      "name": "ERC20InsufficientBalance",
      "type": "error"
    },
    {
      "inputs": [
        {
          "internalType": "address",
          "name": "approver",
          "type": "address"
        }
      ],
      "name": "ERC20InvalidApprover",
      "type": "error"
    },
    {
      "inputs": [
        {
          "internalType": "address",
          "name": "receiver",
          "type": "address"
        }
      ],
      "name": "ERC20InvalidReceiver",
      "type": "error"
    },
    {
      "inputs": [
        {
          "internalType": "address",
          "name": "sender",
          "type": "address"
        }
      ],
      "name": "ERC20InvalidSender",
      "type": "error"
    },
    {
      "inputs": [
        {
          "internalType": "address",
          "name": "spender",
          "type": "address"
        }
      ],
      "name": "ERC20InvalidSpender",
      "type": "error"
    },
    {
      "inputs": [
        {
          "internalType": "address",
          "name": "owner",
          "type": "address"
        }
      ],
      "name": "OwnableInvalidOwner",
      "type": "error"
    },
    {
      "inputs": [
        {
          "internalType": "address",
          "name": "account",
          "type": "address"
        }
      ],
      "name": "OwnableUnauthorizedAccount",
      "type": "error"
    },
    {
      "anonymous": false,
      "inputs": [
        {
          "indexed": true,
          "internalType": "address",
          "name": "owner",
          "type": "address"
        },
        {
          "indexed": true,
          "internalType": "address",
          "name": "spender",
          "type": "address"
        },
        {
          "indexed": false,
          "internalType": "uint256",
          "name": "value",
          "type": "uint256"
        }
      ],
      "name": "Approval",
      "type": "event"
    },
    {
      "anonymous": false,
      "inputs": [
        {
          "indexed": false,
          "internalType": "uint8",
          "name": "platformPercentage",
          "type": "uint8"
        },
        {
          "indexed": false,
          "internalType": "uint8",
          "name": "stakerPercentage",
          "type": "uint8"
        },
        {
          "indexed": false,
          "internalType": "uint8",
          "name": "lpPercentage",
          "type": "uint8"
        }
      ],
      "name": "DistributionPercentagesUpdated",
      "type": "event"
    },
    {
      "anonymous": false,
      "inputs": [
        {
          "indexed": false,
          "internalType": "uint256",
          "name": "newThreshold",
          "type": "uint256"
        }
      ],
      "name": "DistributionThresholdUpdated",
      "type": "event"
    },
    {
      "anonymous": false,
      "inputs": [
        {
          "indexed": false,
          "internalType": "address",
          "name": "wallet",
          "type": "address"
        },
        {
          "indexed": false,
          "internalType": "bool",
          "name": "isExcluded",
          "type": "bool"
        }
      ],
      "name": "ExcludedFromFeesUpdated",
      "type": "event"
    },
    {
      "anonymous": false,
      "inputs": [
        {
          "indexed": false,
          "internalType": "uint256",
          "name": "tokenAmount",
          "type": "uint256"
        },
        {
          "indexed": false,
          "internalType": "uint256",
          "name": "ethAmount",
          "type": "uint256"
        }
      ],
      "name": "LiquidityAdded",
      "type": "event"
    },
    {
      "anonymous": false,
      "inputs": [
        {
          "indexed": false,
          "internalType": "address",
          "name": "newLpAddress",
          "type": "address"
        }
      ],
      "name": "LpAddressUpdated",
      "type": "event"
    },
    {
      "anonymous": false,
      "inputs": [
        {
          "indexed": false,
          "internalType": "address",
          "name": "pair",
          "type": "address"
        },
        {
          "indexed": false,
          "internalType": "bool",
          "name": "isMarketPair",
          "type": "bool"
        }
      ],
      "name": "MarketPairUpdated",
      "type": "event"
    },
    {
      "anonymous": false,
      "inputs": [
        {
          "indexed": true,
          "internalType": "address",
          "name": "previousOwner",
          "type": "address"
        },
        {
          "indexed": true,
          "internalType": "address",
          "name": "newOwner",
          "type": "address"
        }
      ],
      "name": "OwnershipTransferred",
      "type": "event"
    },
    {
      "anonymous": false,
      "inputs": [
        {
          "indexed": false,
          "internalType": "uint256",
          "name": "amount",
          "type": "uint256"
        }
      ],
      "name": "PlatformTaxDistributed",
      "type": "event"
    },
    {
      "anonymous": false,
      "inputs": [
        {
          "indexed": false,
          "internalType": "address[]",
          "name": "stakingContracts",
          "type": "address[]"
        },
        {
          "indexed": false,
          "internalType": "uint8[]",
          "name": "percentages",
          "type": "uint8[]"
        }
      ],
      "name": "StakingContractsUpdated",
      "type": "event"
    },
    {
      "anonymous": false,
      "inputs": [
        {
          "indexed": false,
          "internalType": "address",
          "name": "newTaxAddress",
          "type": "address"
        }
      ],
      "name": "TaxAddressUpdated",
      "type": "event"
    },
    {
      "anonymous": false,
      "inputs": [
        {
          "indexed": false,
          "internalType": "uint256",
          "name": "platformCut",
          "type": "uint256"
        },
        {
          "indexed": false,
          "internalType": "uint256",
          "name": "stakersCut",
          "type": "uint256"
        },
        {
          "indexed": false,
          "internalType": "uint256",
          "name": "liquidityCut",
          "type": "uint256"
        }
      ],
      "name": "TaxDistributed",
      "type": "event"
    },
    {
      "anonymous": false,
      "inputs": [],
      "name": "TaxRenounced",
      "type": "event"
    },
    {
      "anonymous": false,
      "inputs": [
        {
          "indexed": false,
          "internalType": "bool",
          "name": "isTaxEnabled",
          "type": "bool"
        }
      ],
      "name": "TaxStatusUpdated",
      "type": "event"
    },
    {
      "anonymous": false,
      "inputs": [
        {
          "indexed": false,
          "internalType": "uint8",
          "name": "buyTax",
          "type": "uint8"
        },
        {
          "indexed": false,
          "internalType": "uint8",
          "name": "sellTax",
          "type": "uint8"
        }
      ],
      "name": "TaxesUpdated",
      "type": "event"
    },
    {
      "anonymous": false,
      "inputs": [],
      "name": "TradingOpen",
      "type": "event"
    },
    {
      "anonymous": false,
      "inputs": [
        {
          "indexed": true,
          "internalType": "address",
          "name": "from",
          "type": "address"
        },
        {
          "indexed": true,
          "internalType": "address",
          "name": "to",
          "type": "address"
        },
        {
          "indexed": false,
          "internalType": "uint256",
          "name": "value",
          "type": "uint256"
        }
      ],
      "name": "Transfer",
      "type": "event"
    },
    {
      "anonymous": false,
      "inputs": [
        {
          "indexed": false,
          "internalType": "address",
          "name": "newRouter",
          "type": "address"
        }
      ],
      "name": "UniswapRouterUpdated",
      "type": "event"
    },
    {
      "inputs": [
        {
          "internalType": "address",
          "name": "owner",
          "type": "address"
        },
        {
          "internalType": "address",
          "name": "spender",
          "type": "address"
        }
      ],
      "name": "allowance",
      "outputs": [
        {
          "internalType": "uint256",
          "name": "",
          "type": "uint256"
        }
      ],
      "stateMutability": "view",
      "type": "function"
    },
    {
      "inputs": [
        {
          "internalType": "address",
          "name": "spender",
          "type": "address"
        },
        {
          "internalType": "uint256",
          "name": "value",
          "type": "uint256"
        }
      ],
      "name": "approve",
      "outputs": [
        {
          "internalType": "bool",
          "name": "",
          "type": "bool"
        }
      ],
      "stateMutability": "nonpayable",
      "type": "function"
    },
    {
      "inputs": [
        {
          "internalType": "address",
          "name": "account",
          "type": "address"
        }
      ],
      "name": "balanceOf",
      "outputs": [
        {
          "internalType": "uint256",
          "name": "",
          "type": "uint256"
        }
      ],
      "stateMutability": "view",
      "type": "function"
    },
    {
      "inputs": [],
      "name": "buyTax",
      "outputs": [
        {
          "internalType": "uint8",
          "name": "",
          "type": "uint8"
        }
      ],
      "stateMutability": "view",
      "type": "function"
    },
    {
      "inputs": [],
      "name": "decimals",
      "outputs": [
        {
          "internalType": "uint8",
          "name": "",
          "type": "uint8"
        }
      ],
      "stateMutability": "view",
      "type": "function"
    },
    {
      "inputs": [],
      "name": "isTradingOpen",
      "outputs": [
        {
          "internalType": "bool",
          "name": "",
          "type": "bool"
        }
      ],
      "stateMutability": "view",
      "type": "function"
    },
    {
      "inputs": [],
      "name": "lpAddress",
      "outputs": [
        {
          "internalType": "address",
          "name": "",
          "type": "address"
        }
      ],
      "stateMutability": "view",
      "type": "function"
    },
    {
      "inputs": [],
      "name": "lpPercentage",
      "outputs": [
        {
          "internalType": "uint8",
          "name": "",
          "type": "uint8"
        }
      ],
      "stateMutability": "view",
      "type": "function"
    },
    {
      "inputs": [],
      "name": "name",
      "outputs": [
        {
          "internalType": "string",
          "name": "",
          "type": "string"
        }
      ],
      "stateMutability": "view",
      "type": "function"
    },
    {
      "inputs": [],
      "name": "owner",
      "outputs": [
        {
          "internalType": "address",
          "name": "",
          "type": "address"
        }
      ],
      "stateMutability": "view",
      "type": "function"
    },
    {
      "inputs": [],
      "name": "platformPercentage",
      "outputs": [
        {
          "internalType": "uint8",
          "name": "",
          "type": "uint8"
        }
      ],
      "stateMutability": "view",
      "type": "function"
    },
    {
      "inputs": [],
      "name": "renounceOwnership",
      "outputs": [],
      "stateMutability": "nonpayable",
      "type": "function"
    },
    {
      "inputs": [],
      "name": "sellTax",
      "outputs": [
        {
          "internalType": "uint8",
          "name": "",
          "type": "uint8"
        }
      ],
      "stateMutability": "view",
      "type": "function"
    },
    {
      "inputs": [],
      "name": "stakerPercentage",
      "outputs": [
        {
          "internalType": "uint8",
          "name": "",
          "type": "uint8"
        }
      ],
      "stateMutability": "view",
      "type": "function"
    },
    {
      "inputs": [],
      "name": "symbol",
      "outputs": [
        {
          "internalType": "string",
          "name": "",
          "type": "string"
        }
      ],
      "stateMutability": "view",
      "type": "function"
    },
    {
      "inputs": [],
      "name": "taxAddress",
      "outputs": [
        {
          "internalType": "address",
          "name": "",
          "type": "address"
        }
      ],
      "stateMutability": "view",
      "type": "function"
    },
    {
      "inputs": [],
      "name": "taxDistributionThreshold",
      "outputs": [
        {
          "internalType": "uint256",
          "name": "",
          "type": "uint256"
        }
      ],
      "stateMutability": "view",
      "type": "function"
    },
    {
      "inputs": [],
      "name": "totalSupply",
      "outputs": [
        {
          "internalType": "uint256",
          "name": "",
          "type": "uint256"
        }
      ],
      "stateMutability": "view",
      "type": "function"
    },
    {
      "inputs": [
        {
          "internalType": "address",
          "name": "to",
          "type": "address"
        },
        {
          "internalType": "uint256",
          "name": "value",
          "type": "uint256"
        }
      ],
      "name": "transfer",
      "outputs": [
        {
          "internalType": "bool",
          "name": "",
          "type": "bool"
        }
      ],
      "stateMutability": "nonpayable",
      "type": "function"
    },
    {
      "inputs": [
        {
          "internalType": "address",
          "name": "from",
          "type": "address"
        },
        {
          "internalType": "address",
          "name": "to",
          "type": "address"
        },
        {
          "internalType": "uint256",
          "name": "value",
          "type": "uint256"
        }
      ],
      "name": "transferFrom",
      "outputs": [
        {
          "internalType": "bool",
          "name": "",
          "type": "bool"
        }
      ],
      "stateMutability": "nonpayable",
      "type": "function"
    },
    {
      "inputs": [
        {
          "internalType": "address",
          "name": "newOwner",
          "type": "address"
        }
      ],
      "name": "transferOwnership",
      "outputs": [],
      "stateMutability": "nonpayable",
      "type": "function"
    },
    {
      "inputs": [],
      "name": "uniswapV2Router",
      "outputs": [
        {
          "internalType": "contract IUniswapV2Router02",
          "name": "",
          "type": "address"
        }
      ],
      "stateMutability": "view",
      "type": "function"
    },
    {
      "inputs": [
        {
          "internalType": "address",
          "name": "",
          "type": "address"
        }
      ],
      "name": "walletStates",
      "outputs": [
        {
          "internalType": "bool",
          "name": "isMarketPair",
          "type": "bool"
        },
        {
          "internalType": "bool",
          "name": "isExemptFromTax",
          "type": "bool"
        }
      ],
      "stateMutability": "view",
      "type": "function"
    },
    {
      "stateMutability": "payable",
      "type": "receive"
    },
    {
      "inputs": [
        {
          "internalType": "address",
          "name": "account_",
          "type": "address"
        }
      ],
      "name": "isTaxExempt",
      "outputs": [
        {
          "internalType": "bool",
          "name": "",
          "type": "bool"
        }
      ],
      "stateMutability": "view",
      "type": "function"
    },
    {
      "inputs": [],
      "name": "isTaxEnabled",
      "outputs": [
        {
          "internalType": "bool",
          "name": "",
          "type": "bool"
        }
      ],
      "stateMutability": "view",
      "type": "function"
    },
    {
      "inputs": [],
      "name": "isTaxRenounced",
      "outputs": [
        {
          "internalType": "bool",
          "name": "",
          "type": "bool"
        }
      ],
      "stateMutability": "view",
      "type": "function"
    },
    {
      "inputs": [],
      "name": "distributeTax",
      "outputs": [],
      "stateMutability": "nonpayable",
      "type": "function"
    },
    {
      "inputs": [],
      "name": "getStakingContracts",
      "outputs": [
        {
          "components": [
            {
              "internalType": "address",
              "name": "contractAddress",
              "type": "address"
            },
            {
              "internalType": "uint8",
              "name": "percentage",
              "type": "uint8"
            }
          ],
          "internalType": "struct StakingContract[]",
          "name": "",
          "type": "tuple[]"
        }
      ],
      "stateMutability": "view",
      "type": "function"
    },
    {
      "inputs": [
        {
          "internalType": "address[]",
          "name": "stakingContracts_",
          "type": "address[]"
        },
        {
          "internalType": "uint8[]",
          "name": "percentages_",
          "type": "uint8[]"
        }
      ],
      "name": "updateStakingContracts",
      "outputs": [],
      "stateMutability": "nonpayable",
      "type": "function"
    },
    {
      "inputs": [],
      "name": "openTrading",
      "outputs": [],
      "stateMutability": "nonpayable",
      "type": "function"
    },
    {
      "inputs": [],
      "name": "renounceTax",
      "outputs": [],
      "stateMutability": "nonpayable",
      "type": "function"
    },
    {
      "inputs": [
        {
          "internalType": "address",
          "name": "newRouter",
          "type": "address"
        }
      ],
      "name": "updateUniswapRouter",
      "outputs": [],
      "stateMutability": "nonpayable",
      "type": "function"
    },
    {
      "inputs": [
        {
          "internalType": "address",
          "name": "account",
          "type": "address"
        },
        {
          "internalType": "bool",
          "name": "isExempt",
          "type": "bool"
        }
      ],
      "name": "setTaxExempt",
      "outputs": [],
      "stateMutability": "nonpayable",
      "type": "function"
    },
    {
      "inputs": [
        {
          "internalType": "bool",
          "name": "taxStatus_",
          "type": "bool"
        }
      ],
      "name": "setTaxEnabled",
      "outputs": [],
      "stateMutability": "nonpayable",
      "type": "function"
    },
    {
      "inputs": [
        {
          "internalType": "address",
          "name": "newTaxAddress_",
          "type": "address"
        }
      ],
      "name": "setTaxAddress",
      "outputs": [],
      "stateMutability": "nonpayable",
      "type": "function"
    },
    {
      "inputs": [
        {
          "internalType": "address",
          "name": "newLpAddress_",
          "type": "address"
        }
      ],
      "name": "setLpAddress",
      "outputs": [],
      "stateMutability": "nonpayable",
      "type": "function"
    },
    {
      "inputs": [
        {
          "internalType": "uint8",
          "name": "newBuyTax_",
          "type": "uint8"
        },
        {
          "internalType": "uint8",
          "name": "newSellTax_",
          "type": "uint8"
        }
      ],
      "name": "setTaxAmount",
      "outputs": [],
      "stateMutability": "nonpayable",
      "type": "function"
    },
    {
      "inputs": [
        {
          "internalType": "address",
          "name": "account",
          "type": "address"
        },
        {
          "internalType": "bool",
          "name": "value",
          "type": "bool"
        }
      ],
      "name": "setMarketPair",
      "outputs": [],
      "stateMutability": "nonpayable",
      "type": "function"
    },
    {
      "inputs": [
        {
          "internalType": "uint8",
          "name": "platformPercentage_",
          "type": "uint8"
        },
        {
          "internalType": "uint8",
          "name": "stakerPercentage_",
          "type": "uint8"
        },
        {
          "internalType": "uint8",
          "name": "lpPercentage_",
          "type": "uint8"
        }
      ],
      "name": "setDistributionPercentage",
      "outputs": [],
      "stateMutability": "nonpayable",
      "type": "function"
    },
    {
      "inputs": [
        {
          "internalType": "uint256",
          "name": "newTaxDistributionThreshold_",
          "type": "uint256"
        }
      ],
      "name": "changeTaxDistributionThreshold",
      "outputs": [],
      "stateMutability": "nonpayable",
      "type": "function"
    },
    {
      "inputs": [
        {
          "internalType": "uint256",
          "name": "amount_",
          "type": "uint256"
        }
      ],
      "name": "rescueStuckETH",
      "outputs": [],
      "stateMutability": "nonpayable",
      "type": "function"
    }
  ],
  "bytecode": "0x60806040525f60075f6101000a81548160ff021916908360ff1602179055505f600760016101000a81548160ff021916908360ff1602179055506032600760026101000a81548160ff021916908360ff1602179055506032600760036101000a81548160ff021916908360ff1602179055505f600760046101000a81548160ff021916908360ff1602179055505f600760056101000a81548160ff0219169083151502179055506001600760066101000a81548160ff0219169083151502179055505f6007806101000a81548160ff0219169083151502179055505f600760086101000a81548160ff0219169083151502179055506a0422ca8b0a00a4250000006008553480156200010f575f80fd5b50336040518060400160405280600b81526020017f4261736564205369676d610000000000000000000000000000000000000000008152506040518060400160405280600581526020017f5349474d4100000000000000000000000000000000000000000000000000000081525081600390816200018e919062001121565b508060049081620001a0919062001121565b5050505f73ffffffffffffffffffffffffffffffffffffffff168173ffffffffffffffffffffffffffffffffffffffff160362000216575f6040517f1e4fbdf70000000000000000000000000000000000000000000000000000000081526004016200020d919062001248565b60405180910390fd5b62000227816200074860201b60201c565b50620002465f336a084595161401484a0000006200080b60201b60201c565b5f734752ba5dbc23f44d87826276bf6fd6b1c372ad2490505f8190505f8173ffffffffffffffffffffffffffffffffffffffff1663c45a01556040518163ffffffff1660e01b8152600401602060405180830381865afa158015620002ad573d5f803e3d5ffd5b505050506040513d601f19601f82011682018060405250810190620002d3919062001296565b73ffffffffffffffffffffffffffffffffffffffff1663c9c65396308473ffffffffffffffffffffffffffffffffffffffff1663ad5c46486040518163ffffffff1660e01b8152600401602060405180830381865afa15801562000339573d5f803e3d5ffd5b505050506040513d601f19601f820116820180604052508101906200035f919062001296565b6040518363ffffffff1660e01b81526004016200037e929190620012c6565b6020604051808303815f875af11580156200039b573d5f803e3d5ffd5b505050506040513d601f19601f82011682018060405250810190620003c1919062001296565b90508160095f6101000a81548173ffffffffffffffffffffffffffffffffffffffff021916908373ffffffffffffffffffffffffffffffffffffffff1602179055506200043630847fffffffffffffffffffffffffffffffffffffffffffffffffffffffffffffffff62000a2f60201b60201c565b6200044981600162000a4960201b60201c565b33600a5f6101000a81548173ffffffffffffffffffffffffffffffffffffffff021916908373ffffffffffffffffffffffffffffffffffffffff16021790555033600b5f6101000a81548173ffffffffffffffffffffffffffffffffffffffff021916908373ffffffffffffffffffffffffffffffffffffffff16021790555060405180604001604052805f151581526020016001151581525060065f3373ffffffffffffffffffffffffffffffffffffffff1673ffffffffffffffffffffffffffffffffffffffff1681526020019081526020015f205f820151815f015f6101000a81548160ff0219169083151502179055506020820151815f0160016101000a81548160ff0219169083151502179055509050507fe4cbcfb1a60e2c589f335f74c6c57b0be57eb6c50eb56442d8a67735dba70cad336001604051620005939291906200130d565b60405180910390a160405180604001604052805f151581526020016001151581525060065f3073ffffffffffffffffffffffffffffffffffffffff1673ffffffffffffffffffffffffffffffffffffffff1681526020019081526020015f205f820151815f015f6101000a81548160ff0219169083151502179055506020820151815f0160016101000a81548160ff0219169083151502179055509050507fe4cbcfb1a60e2c589f335f74c6c57b0be57eb6c50eb56442d8a67735dba70cad306001604051620006659291906200130d565b60405180910390a160405180604001604052805f151581526020016001151581525060065f8573ffffffffffffffffffffffffffffffffffffffff1673ffffffffffffffffffffffffffffffffffffffff1681526020019081526020015f205f820151815f015f6101000a81548160ff0219169083151502179055506020820151815f0160016101000a81548160ff0219169083151502179055509050507fe4cbcfb1a60e2c589f335f74c6c57b0be57eb6c50eb56442d8a67735dba70cad836001604051620007379291906200130d565b60405180910390a150505062001484565b5f60055f9054906101000a900473ffffffffffffffffffffffffffffffffffffffff1690508160055f6101000a81548173ffffffffffffffffffffffffffffffffffffffff021916908373ffffffffffffffffffffffffffffffffffffffff1602179055508173ffffffffffffffffffffffffffffffffffffffff168173ffffffffffffffffffffffffffffffffffffffff167f8be0079c531659141344cd1fd0a4f28419497f9722a3daafe3b4186f6b6457e060405160405180910390a35050565b5f73ffffffffffffffffffffffffffffffffffffffff168373ffffffffffffffffffffffffffffffffffffffff16036200085f578060025f82825462000852919062001365565b9250508190555062000930565b5f805f8573ffffffffffffffffffffffffffffffffffffffff1673ffffffffffffffffffffffffffffffffffffffff1681526020019081526020015f2054905081811015620008eb578381836040517fe450d38c000000000000000000000000000000000000000000000000000000008152600401620008e293929190620013b0565b60405180910390fd5b8181035f808673ffffffffffffffffffffffffffffffffffffffff1673ffffffffffffffffffffffffffffffffffffffff1681526020019081526020015f2081905550505b5f73ffffffffffffffffffffffffffffffffffffffff168273ffffffffffffffffffffffffffffffffffffffff160362000979578060025f8282540392505081905550620009c3565b805f808473ffffffffffffffffffffffffffffffffffffffff1673ffffffffffffffffffffffffffffffffffffffff1681526020019081526020015f205f82825401925050819055505b8173ffffffffffffffffffffffffffffffffffffffff168373ffffffffffffffffffffffffffffffffffffffff167fddf252ad1be2c89b69c2b068fc378daa952ba7f163c4a11628f55a4df523b3ef8360405162000a229190620013eb565b60405180910390a3505050565b62000a44838383600162000c1460201b60201c565b505050565b62000a5962000dec60201b60201c565b3073ffffffffffffffffffffffffffffffffffffffff168273ffffffffffffffffffffffffffffffffffffffff160362000aca576040517f08c379a000000000000000000000000000000000000000000000000000000000815260040162000ac19062001464565b60405180910390fd5b5f60065f8473ffffffffffffffffffffffffffffffffffffffff1673ffffffffffffffffffffffffffffffffffffffff1681526020019081526020015f206040518060400160405290815f82015f9054906101000a900460ff161515151581526020015f820160019054906101000a900460ff161515151581525050905081815f0190151590811515815250508060065f8573ffffffffffffffffffffffffffffffffffffffff1673ffffffffffffffffffffffffffffffffffffffff1681526020019081526020015f205f820151815f015f6101000a81548160ff0219169083151502179055506020820151815f0160016101000a81548160ff0219169083151502179055509050507f160ff69a72bc70f3e792a86c87d27070e421562197f032d96bcab11c5010222e838360405162000c079291906200130d565b60405180910390a1505050565b5f73ffffffffffffffffffffffffffffffffffffffff168473ffffffffffffffffffffffffffffffffffffffff160362000c87575f6040517fe602df0500000000000000000000000000000000000000000000000000000000815260040162000c7e919062001248565b60405180910390fd5b5f73ffffffffffffffffffffffffffffffffffffffff168373ffffffffffffffffffffffffffffffffffffffff160362000cfa575f6040517f94280d6200000000000000000000000000000000000000000000000000000000815260040162000cf1919062001248565b60405180910390fd5b8160015f8673ffffffffffffffffffffffffffffffffffffffff1673ffffffffffffffffffffffffffffffffffffffff1681526020019081526020015f205f8573ffffffffffffffffffffffffffffffffffffffff1673ffffffffffffffffffffffffffffffffffffffff1681526020019081526020015f2081905550801562000de6578273ffffffffffffffffffffffffffffffffffffffff168473ffffffffffffffffffffffffffffffffffffffff167f8c5be1e5ebec7d5bd14f71427d1e84f3dd0314c0f7b2291e5b200ac8c7c3b9258460405162000ddd9190620013eb565b60405180910390a35b50505050565b62000dfc62000e8e60201b60201c565b73ffffffffffffffffffffffffffffffffffffffff1662000e2262000e9560201b60201c565b73ffffffffffffffffffffffffffffffffffffffff161462000e8c5762000e4e62000e8e60201b60201c565b6040517f118cdaa700000000000000000000000000000000000000000000000000000000815260040162000e83919062001248565b60405180910390fd5b565b5f33905090565b5f60055f9054906101000a900473ffffffffffffffffffffffffffffffffffffffff16905090565b5f81519050919050565b7f4e487b71000000000000000000000000000000000000000000000000000000005f52604160045260245ffd5b7f4e487b71000000000000000000000000000000000000000000000000000000005f52602260045260245ffd5b5f600282049050600182168062000f3957607f821691505b60208210810362000f4f5762000f4e62000ef4565b5b50919050565b5f819050815f5260205f209050919050565b5f6020601f8301049050919050565b5f82821b905092915050565b5f6008830262000fb37fffffffffffffffffffffffffffffffffffffffffffffffffffffffffffffffff8262000f76565b62000fbf868362000f76565b95508019841693508086168417925050509392505050565b5f819050919050565b5f819050919050565b5f620010096200100362000ffd8462000fd7565b62000fe0565b62000fd7565b9050919050565b5f819050919050565b620010248362000fe9565b6200103c620010338262001010565b84845462000f82565b825550505050565b5f90565b6200105262001044565b6200105f81848462001019565b505050565b5b8181101562001086576200107a5f8262001048565b60018101905062001065565b5050565b601f821115620010d5576200109f8162000f55565b620010aa8462000f67565b81016020851015620010ba578190505b620010d2620010c98562000f67565b83018262001064565b50505b505050565b5f82821c905092915050565b5f620010f75f1984600802620010da565b1980831691505092915050565b5f620011118383620010e6565b9150826002028217905092915050565b6200112c8262000ebd565b67ffffffffffffffff81111562001148576200114762000ec7565b5b62001154825462000f21565b620011618282856200108a565b5f60209050601f83116001811462001197575f841562001182578287015190505b6200118e858262001104565b865550620011fd565b601f198416620011a78662000f55565b5f5b82811015620011d057848901518255600182019150602085019450602081019050620011a9565b86831015620011f05784890151620011ec601f891682620010e6565b8355505b6001600288020188555050505b505050505050565b5f73ffffffffffffffffffffffffffffffffffffffff82169050919050565b5f620012308262001205565b9050919050565b620012428162001224565b82525050565b5f6020820190506200125d5f83018462001237565b92915050565b5f80fd5b620012728162001224565b81146200127d575f80fd5b50565b5f81519050620012908162001267565b92915050565b5f60208284031215620012ae57620012ad62001263565b5b5f620012bd8482850162001280565b91505092915050565b5f604082019050620012db5f83018562001237565b620012ea602083018462001237565b9392505050565b5f8115159050919050565b6200130781620012f1565b82525050565b5f604082019050620013225f83018562001237565b620013316020830184620012fc565b9392505050565b7f4e487b71000000000000000000000000000000000000000000000000000000005f52601160045260245ffd5b5f620013718262000fd7565b91506200137e8362000fd7565b925082820190508082111562001399576200139862001338565b5b92915050565b620013aa8162000fd7565b82525050565b5f606082019050620013c55f83018662001237565b620013d460208301856200139f565b620013e360408301846200139f565b949350505050565b5f602082019050620014005f8301846200139f565b92915050565b5f82825260208201905092915050565b7f42617365645369676d613a2063616e74206368616e676520636f6e74726163745f82015250565b5f6200144c60208362001406565b9150620014598262001416565b602082019050919050565b5f6020820190508181035f8301526200147d816200143e565b9050919050565b614a8f80620014925f395ff3fe608060405260043610610249575f3560e01c80637957f3e011610138578063b7bda68f116100b5578063cc2b976c11610079578063cc2b976c14610819578063dad8a03214610843578063dd62ed3e1461086d578063e6c1909b146108a9578063f2fde38b146108d3578063fc7ebebd146108fb57610250565b8063b7bda68f1461075f578063c16dd4a414610789578063c6af580b146107b1578063c9567bf9146107d9578063cc1776d3146107ef57610250565b806398962f36116100fc57806398962f361461066c5780639b4dc8cc146106a9578063a1883d26146106d3578063a89d5b2a146106fb578063a9059cbb1461072357610250565b80637957f3e0146105b25780638da5cb5b146105da5780638fecae6914610604578063908bb2ae1461061a57806395d89b411461064257610250565b8063313ce567116101c657806356a060a21161018a57806356a060a2146104e65780636f5e02121461051057806370a0823114610538578063715018a614610574578063765682a51461058a57610250565b8063313ce567146104185780633f9cfbee146104425780633fc16c0c1461046a57806347e30f0f146104925780634f7041a5146104bc57610250565b806318160ddd1161020d57806318160ddd146103365780631a425616146103605780631dc610401461038a5780631f741897146103b257806323b872dd146103dc57610250565b806306fdde0314610254578063095ea7b31461027e5780630f3d9c9f146102ba5780631694505e146102d057806316c2be6b146102fa57610250565b3661025057005b5f80fd5b34801561025f575f80fd5b50610268610925565b6040516102759190613160565b60405180910390f35b348015610289575f80fd5b506102a4600480360381019061029f919061321e565b6109b5565b6040516102b19190613276565b60405180910390f35b3480156102c5575f80fd5b506102ce6109d7565b005b3480156102db575f80fd5b506102e4610c1a565b6040516102f191906132ea565b60405180910390f35b348015610305575f80fd5b50610320600480360381019061031b9190613303565b610c3f565b60405161032d9190613276565b60405180910390f35b348015610341575f80fd5b5061034a610c94565b604051610357919061333d565b60405180910390f35b34801561036b575f80fd5b50610374610c9d565b604051610381919061333d565b60405180910390f35b348015610395575f80fd5b506103b060048036038101906103ab9190613380565b610ca3565b005b3480156103bd575f80fd5b506103c6610e62565b6040516103d391906133d9565b60405180910390f35b3480156103e7575f80fd5b5061040260048036038101906103fd91906133f2565b610e75565b60405161040f9190613276565b60405180910390f35b348015610423575f80fd5b5061042c610ea3565b60405161043991906133d9565b60405180910390f35b34801561044d575f80fd5b5061046860048036038101906104639190613442565b610eab565b005b348015610475575f80fd5b50610490600480360381019061048b9190613697565b610fa1565b005b34801561049d575f80fd5b506104a6611309565b6040516104b391906133d9565b60405180910390f35b3480156104c7575f80fd5b506104d061131c565b6040516104dd91906133d9565b60405180910390f35b3480156104f1575f80fd5b506104fa61132e565b6040516105079190613276565b60405180910390f35b34801561051b575f80fd5b5061053660048036038101906105319190613303565b61133f565b005b348015610543575f80fd5b5061055e60048036038101906105599190613303565b6113c1565b60405161056b919061333d565b60405180910390f35b34801561057f575f80fd5b50610588611406565b005b348015610595575f80fd5b506105b060048036038101906105ab919061370d565b611419565b005b3480156105bd575f80fd5b506105d860048036038101906105d3919061374b565b61153f565b005b3480156105e5575f80fd5b506105ee611634565b6040516105fb91906137aa565b60405180910390f35b34801561060f575f80fd5b5061061861165c565b005b348015610625575f80fd5b50610640600480360381019061063b9190613303565b6116ad565b005b34801561064d575f80fd5b506106566117f9565b6040516106639190613160565b60405180910390f35b348015610677575f80fd5b50610692600480360381019061068d9190613303565b611889565b6040516106a09291906137c3565b60405180910390f35b3480156106b4575f80fd5b506106bd6118c1565b6040516106ca91906137aa565b60405180910390f35b3480156106de575f80fd5b506106f960048036038101906106f49190613303565b6118e6565b005b348015610706575f80fd5b50610721600480360381019061071c9190613442565b611968565b005b34801561072e575f80fd5b506107496004803603810190610744919061321e565b611a06565b6040516107569190613276565b60405180910390f35b34801561076a575f80fd5b50610773611a28565b60405161078091906137aa565b60405180910390f35b348015610794575f80fd5b506107af60048036038101906107aa9190613380565b611a4d565b005b3480156107bc575f80fd5b506107d760048036038101906107d291906137ea565b611c0b565b005b3480156107e4575f80fd5b506107ed611c67565b005b3480156107fa575f80fd5b50610803611d41565b60405161081091906133d9565b60405180910390f35b348015610824575f80fd5b5061082d611d54565b60405161083a9190613276565b60405180910390f35b34801561084e575f80fd5b50610857611d6a565b6040516108649190613908565b60405180910390f35b348015610878575f80fd5b50610893600480360381019061088e9190613928565b611e32565b6040516108a0919061333d565b60405180910390f35b3480156108b4575f80fd5b506108bd611eb4565b6040516108ca9190613276565b60405180910390f35b3480156108de575f80fd5b506108f960048036038101906108f49190613303565b611eca565b005b348015610906575f80fd5b5061090f611f4e565b60405161091c91906133d9565b60405180910390f35b60606003805461093490613993565b80601f016020809104026020016040519081016040528092919081815260200182805461096090613993565b80156109ab5780601f10610982576101008083540402835291602001916109ab565b820191905f5260205f20905b81548152906001019060200180831161098e57829003601f168201915b5050505050905090565b5f806109bf611f61565b90506109cc818585611f68565b600191505092915050565b6001600760086101000a81548160ff0219169083151502179055503073ffffffffffffffffffffffffffffffffffffffff163373ffffffffffffffffffffffffffffffffffffffff161480610a5e5750610a2f611634565b73ffffffffffffffffffffffffffffffffffffffff163373ffffffffffffffffffffffffffffffffffffffff16145b610a9d576040517f08c379a0000000000000000000000000000000000000000000000000000000008152600401610a9490613a0d565b60405180910390fd5b5f610aa7306113c1565b90505f6064600760029054906101000a900460ff1660ff1683610aca9190613a58565b610ad49190613ac6565b90505f6064600760039054906101000a900460ff1660ff1684610af79190613a58565b610b019190613ac6565b90505f80600760049054906101000a900460ff1660ff161115610b4b576064600760049054906101000a900460ff1660ff1685610b3e9190613a58565b610b489190613ac6565b90505b610b54306113c1565b818385610b619190613af6565b610b6b9190613af6565b1115610bac576040517f08c379a0000000000000000000000000000000000000000000000000000000008152600401610ba390613b99565b60405180910390fd5b610bb582611f7a565b610bbf838261206c565b7ffd3bc8cbcb80e2c149c0afd0c43c5481efe524348d615ffb006c32e490f60add838383604051610bf293929190613bb7565b60405180910390a1505050505f600760086101000a81548160ff021916908315150217905550565b60095f9054906101000a900473ffffffffffffffffffffffffffffffffffffffff1681565b5f60065f8373ffffffffffffffffffffffffffffffffffffffff1673ffffffffffffffffffffffffffffffffffffffff1681526020019081526020015f205f0160019054906101000a900460ff169050919050565b5f600254905090565b60085481565b610cab61224f565b3073ffffffffffffffffffffffffffffffffffffffff168273ffffffffffffffffffffffffffffffffffffffff1603610d19576040517f08c379a0000000000000000000000000000000000000000000000000000000008152600401610d1090613c5c565b60405180910390fd5b5f60065f8473ffffffffffffffffffffffffffffffffffffffff1673ffffffffffffffffffffffffffffffffffffffff1681526020019081526020015f206040518060400160405290815f82015f9054906101000a900460ff161515151581526020015f820160019054906101000a900460ff1615151515815250509050818160200190151590811515815250508060065f8573ffffffffffffffffffffffffffffffffffffffff1673ffffffffffffffffffffffffffffffffffffffff1681526020019081526020015f205f820151815f015f6101000a81548160ff0219169083151502179055506020820151815f0160016101000a81548160ff0219169083151502179055509050507fe4cbcfb1a60e2c589f335f74c6c57b0be57eb6c50eb56442d8a67735dba70cad8383604051610e55929190613c7a565b60405180910390a1505050565b600760029054906101000a900460ff1681565b5f80610e7f611f61565b9050610e8c8582856122d6565b610e97858585612368565b60019150509392505050565b5f6012905090565b610eb361224f565b5f8111610ef5576040517f08c379a0000000000000000000000000000000000000000000000000000000008152600401610eec90613ceb565b60405180910390fd5b5f3373ffffffffffffffffffffffffffffffffffffffff1682604051610f1a90613d36565b5f6040518083038185875af1925050503d805f8114610f54576040519150601f19603f3d011682016040523d82523d5f602084013e610f59565b606091505b5050905080610f9d576040517f08c379a0000000000000000000000000000000000000000000000000000000008152600401610f9490613d94565b60405180910390fd5b5050565b610fa961224f565b8051825114610fed576040517f08c379a0000000000000000000000000000000000000000000000000000000008152600401610fe490613e22565b60405180910390fd5b600a82511115611032576040517f08c379a000000000000000000000000000000000000000000000000000000000815260040161102990613eb0565b60405180910390fd5b600c5f61103f9190613069565b5f805b8351811015611284575f83828151811061105f5761105e613ece565b5b602002602001015160ff16101580156110965750606483828151811061108857611087613ece565b5b602002602001015160ff1611155b6110d5576040517f08c379a00000000000000000000000000000000000000000000000000000000081526004016110cc90613f6b565b60405180910390fd5b5f73ffffffffffffffffffffffffffffffffffffffff168482815181106110ff576110fe613ece565b5b602002602001015173ffffffffffffffffffffffffffffffffffffffff160361115d576040517f08c379a000000000000000000000000000000000000000000000000000000000815260040161115490613ff9565b60405180910390fd5b600c604051806040016040528086848151811061117d5761117c613ece565b5b602002602001015173ffffffffffffffffffffffffffffffffffffffff1681526020018584815181106111b3576111b2613ece565b5b602002602001015160ff16815250908060018154018082558091505060019003905f5260205f20015f909190919091505f820151815f015f6101000a81548173ffffffffffffffffffffffffffffffffffffffff021916908373ffffffffffffffffffffffffffffffffffffffff1602179055506020820151815f0160146101000a81548160ff021916908360ff160217905550505082818151811061125c5761125b613ece565b5b60200260200101518261126f9190614017565b9150808061127c9061404b565b915050611042565b5060648160ff16146112cb576040517f08c379a00000000000000000000000000000000000000000000000000000000081526004016112c290614102565b60405180910390fd5b7fa2a4d80ab12a039dfb7e05de1b8ae37a3db49a98d9476aae11e3898513b9999983836040516112fc929190614270565b60405180910390a1505050565b600760039054906101000a900460ff1681565b60075f9054906101000a900460ff1681565b60078054906101000a900460ff1681565b61134761224f565b80600b5f6101000a81548173ffffffffffffffffffffffffffffffffffffffff021916908373ffffffffffffffffffffffffffffffffffffffff1602179055507f81633f85afc8dc8573ddb012d0e43fa48cd7ffe95f106b9dff15376f34f77aec816040516113b691906137aa565b60405180910390a150565b5f805f8373ffffffffffffffffffffffffffffffffffffffff1673ffffffffffffffffffffffffffffffffffffffff1681526020019081526020015f20549050919050565b61140e61224f565b6114175f612458565b565b61142161224f565b5f1515600760059054906101000a900460ff16151514611476576040517f08c379a000000000000000000000000000000000000000000000000000000000815260040161146d906142ef565b60405180910390fd5b600a8260ff161115801561148e5750600a8160ff1611155b6114cd576040517f08c379a00000000000000000000000000000000000000000000000000000000081526004016114c49061437d565b60405180910390fd5b8160075f6101000a81548160ff021916908360ff16021790555080600760016101000a81548160ff021916908360ff1602179055507f0d211fd62d1f720ff6d62d0ba7033ce4b592fb609b9579ee24b947c5bbe2e13f828260405161153392919061439b565b60405180910390a15050565b61154761224f565b60648183856115569190614017565b6115609190614017565b60ff16146115a3576040517f08c379a000000000000000000000000000000000000000000000000000000000815260040161159a90614432565b60405180910390fd5b82600760026101000a81548160ff021916908360ff16021790555081600760036101000a81548160ff021916908360ff16021790555080600760046101000a81548160ff021916908360ff1602179055507f3ffa57fb974c33bbb764b7f7ab54e4f17e801de986a52b04284e054d7c7e026f83838360405161162793929190614450565b60405180910390a1505050565b5f60055f9054906101000a900473ffffffffffffffffffffffffffffffffffffffff16905090565b61166461224f565b6001600760056101000a81548160ff0219169083151502179055507f7fd247c16eb04b80fe08395ad1b812b3cc5fb21905986ceece7d2f2fde91354160405160405180910390a1565b6116b561224f565b5f60095f9054906101000a900473ffffffffffffffffffffffffffffffffffffffff1690508173ffffffffffffffffffffffffffffffffffffffff168173ffffffffffffffffffffffffffffffffffffffff1603611748576040517f08c379a000000000000000000000000000000000000000000000000000000000815260040161173f906144cf565b60405180910390fd5b61175330825f611f68565b61177e30837fffffffffffffffffffffffffffffffffffffffffffffffffffffffffffffffff611f68565b8160095f6101000a81548173ffffffffffffffffffffffffffffffffffffffff021916908373ffffffffffffffffffffffffffffffffffffffff1602179055507f455a5e52b7c01aa52d717db42e17b6610b0c2c96560c85b7e5adcdd254bfc17c826040516117ed91906137aa565b60405180910390a15050565b60606004805461180890613993565b80601f016020809104026020016040519081016040528092919081815260200182805461183490613993565b801561187f5780601f106118565761010080835404028352916020019161187f565b820191905f5260205f20905b81548152906001019060200180831161186257829003601f168201915b5050505050905090565b6006602052805f5260405f205f91509050805f015f9054906101000a900460ff1690805f0160019054906101000a900460ff16905082565b600b5f9054906101000a900473ffffffffffffffffffffffffffffffffffffffff1681565b6118ee61224f565b80600a5f6101000a81548173ffffffffffffffffffffffffffffffffffffffff021916908373ffffffffffffffffffffffffffffffffffffffff1602179055507ffa575a2937f4d8860715335c80a51e975f276f15a8717f4ad9d5ad153d3011ce8160405161195d91906137aa565b60405180910390a150565b61197061224f565b5f81116119b2576040517f08c379a00000000000000000000000000000000000000000000000000000000081526004016119a990614537565b60405180910390fd5b670de0b6b3a7640000816119c69190613a58565b6008819055507f864e12506dcc59e84111281e695dd1b19dc5271daf1cd2a249708a115ba224e6816040516119fb919061333d565b60405180910390a150565b5f80611a10611f61565b9050611a1d818585612368565b600191505092915050565b600a5f9054906101000a900473ffffffffffffffffffffffffffffffffffffffff1681565b611a5561224f565b3073ffffffffffffffffffffffffffffffffffffffff168273ffffffffffffffffffffffffffffffffffffffff1603611ac3576040517f08c379a0000000000000000000000000000000000000000000000000000000008152600401611aba9061459f565b60405180910390fd5b5f60065f8473ffffffffffffffffffffffffffffffffffffffff1673ffffffffffffffffffffffffffffffffffffffff1681526020019081526020015f206040518060400160405290815f82015f9054906101000a900460ff161515151581526020015f820160019054906101000a900460ff161515151581525050905081815f0190151590811515815250508060065f8573ffffffffffffffffffffffffffffffffffffffff1673ffffffffffffffffffffffffffffffffffffffff1681526020019081526020015f205f820151815f015f6101000a81548160ff0219169083151502179055506020820151815f0160016101000a81548160ff0219169083151502179055509050507f160ff69a72bc70f3e792a86c87d27070e421562197f032d96bcab11c5010222e8383604051611bfe929190613c7a565b60405180910390a1505050565b611c1361224f565b80600760066101000a81548160ff0219169083151502179055507ffcee2f8a7deb8619b3bf35fc6bb132f28f41cb8e3a2a2758ecc1e051fa0ce71681604051611c5c9190613276565b60405180910390a150565b611c6f61224f565b5f151560078054906101000a900460ff16151514611cc2576040517f08c379a0000000000000000000000000000000000000000000000000000000008152600401611cb990614607565b60405180910390fd5b60016007806101000a81548160ff021916908315150217905550600a60075f6101000a81548160ff021916908360ff160217905550600a600760016101000a81548160ff021916908360ff1602179055507f08fd3d05bd9c1e39a2044b0a4e2fed4621113adaeeae8fc57e9f4a06777ecf0760405160405180910390a1565b600760019054906101000a900460ff1681565b5f600760059054906101000a900460ff16905090565b6060600c805480602002602001604051908101604052809291908181526020015f905b82821015611e29578382905f5260205f20016040518060400160405290815f82015f9054906101000a900473ffffffffffffffffffffffffffffffffffffffff1673ffffffffffffffffffffffffffffffffffffffff1673ffffffffffffffffffffffffffffffffffffffff1681526020015f820160149054906101000a900460ff1660ff1660ff168152505081526020019060010190611d8d565b50505050905090565b5f60015f8473ffffffffffffffffffffffffffffffffffffffff1673ffffffffffffffffffffffffffffffffffffffff1681526020019081526020015f205f8373ffffffffffffffffffffffffffffffffffffffff1673ffffffffffffffffffffffffffffffffffffffff1681526020019081526020015f2054905092915050565b5f600760069054906101000a900460ff16905090565b611ed261224f565b5f73ffffffffffffffffffffffffffffffffffffffff168173ffffffffffffffffffffffffffffffffffffffff1603611f42575f6040517f1e4fbdf7000000000000000000000000000000000000000000000000000000008152600401611f3991906137aa565b60405180910390fd5b611f4b81612458565b50565b600760049054906101000a900460ff1681565b5f33905090565b611f75838383600161251b565b505050565b5f5b600c80549050811015612068575f600c8281548110611f9e57611f9d613ece565b5b905f5260205f20016040518060400160405290815f82015f9054906101000a900473ffffffffffffffffffffffffffffffffffffffff1673ffffffffffffffffffffffffffffffffffffffff1673ffffffffffffffffffffffffffffffffffffffff1681526020015f820160149054906101000a900460ff1660ff1660ff168152505090505f606484836020015160ff166120399190613a58565b6120439190613ac6565b905061205330835f0151836126ea565b505080806120609061404b565b915050611f7c565b5050565b5f4790505f82111561213a576120a483600160028561208b9190613ac6565b6120959190614625565b61209f9190613af6565b612903565b5f81476120b19190614625565b90505f84846120c09190613af6565b84836120cc9190613a58565b6120d69190613ac6565b90506120ee6002856120e89190613ac6565b82612b4f565b7f38f8a0c92f4c5b0b6877f878cb4c0c8d348a47b76d716c8e78f425043df9515b60028561211c9190613ac6565b8260405161212b929190614658565b60405180910390a15050612144565b61214383612903565b5b5f4790505f600a5f9054906101000a900473ffffffffffffffffffffffffffffffffffffffff1673ffffffffffffffffffffffffffffffffffffffff168260405161218e90613d36565b5f6040518083038185875af1925050503d805f81146121c8576040519150601f19603f3d011682016040523d82523d5f602084013e6121cd565b606091505b5050905080612211576040517f08c379a0000000000000000000000000000000000000000000000000000000008152600401612208906146ef565b60405180910390fd5b7fcc479326940dbeabc56141d9670d6fb0433ec9e11a86ef148c7c9a075dc24a3482604051612240919061333d565b60405180910390a15050505050565b612257611f61565b73ffffffffffffffffffffffffffffffffffffffff16612275611634565b73ffffffffffffffffffffffffffffffffffffffff16146122d457612298611f61565b6040517f118cdaa70000000000000000000000000000000000000000000000000000000081526004016122cb91906137aa565b60405180910390fd5b565b5f6122e18484611e32565b90507fffffffffffffffffffffffffffffffffffffffffffffffffffffffffffffffff81146123625781811015612353578281836040517ffb8f41b200000000000000000000000000000000000000000000000000000000815260040161234a9392919061470d565b60405180910390fd5b61236184848484035f61251b565b5b50505050565b5f73ffffffffffffffffffffffffffffffffffffffff168373ffffffffffffffffffffffffffffffffffffffff16036123d8575f6040517f96c6fd1e0000000000000000000000000000000000000000000000000000000081526004016123cf91906137aa565b60405180910390fd5b5f73ffffffffffffffffffffffffffffffffffffffff168273ffffffffffffffffffffffffffffffffffffffff1603612448575f6040517fec442f0500000000000000000000000000000000000000000000000000000000815260040161243f91906137aa565b60405180910390fd5b612453838383612c1d565b505050565b5f60055f9054906101000a900473ffffffffffffffffffffffffffffffffffffffff1690508160055f6101000a81548173ffffffffffffffffffffffffffffffffffffffff021916908373ffffffffffffffffffffffffffffffffffffffff1602179055508173ffffffffffffffffffffffffffffffffffffffff168173ffffffffffffffffffffffffffffffffffffffff167f8be0079c531659141344cd1fd0a4f28419497f9722a3daafe3b4186f6b6457e060405160405180910390a35050565b5f73ffffffffffffffffffffffffffffffffffffffff168473ffffffffffffffffffffffffffffffffffffffff160361258b575f6040517fe602df0500000000000000000000000000000000000000000000000000000000815260040161258291906137aa565b60405180910390fd5b5f73ffffffffffffffffffffffffffffffffffffffff168373ffffffffffffffffffffffffffffffffffffffff16036125fb575f6040517f94280d620000000000000000000000000000000000000000000000000000000081526004016125f291906137aa565b60405180910390fd5b8160015f8673ffffffffffffffffffffffffffffffffffffffff1673ffffffffffffffffffffffffffffffffffffffff1681526020019081526020015f205f8573ffffffffffffffffffffffffffffffffffffffff1673ffffffffffffffffffffffffffffffffffffffff1681526020019081526020015f208190555080156126e4578273ffffffffffffffffffffffffffffffffffffffff168473ffffffffffffffffffffffffffffffffffffffff167f8c5be1e5ebec7d5bd14f71427d1e84f3dd0314c0f7b2291e5b200ac8c7c3b925846040516126db919061333d565b60405180910390a35b50505050565b5f73ffffffffffffffffffffffffffffffffffffffff168373ffffffffffffffffffffffffffffffffffffffff160361273a578060025f82825461272e9190613af6565b92505081905550612808565b5f805f8573ffffffffffffffffffffffffffffffffffffffff1673ffffffffffffffffffffffffffffffffffffffff1681526020019081526020015f20549050818110156127c3578381836040517fe450d38c0000000000000000000000000000000000000000000000000000000081526004016127ba9392919061470d565b60405180910390fd5b8181035f808673ffffffffffffffffffffffffffffffffffffffff1673ffffffffffffffffffffffffffffffffffffffff1681526020019081526020015f2081905550505b5f73ffffffffffffffffffffffffffffffffffffffff168273ffffffffffffffffffffffffffffffffffffffff160361284f578060025f8282540392505081905550612899565b805f808473ffffffffffffffffffffffffffffffffffffffff1673ffffffffffffffffffffffffffffffffffffffff1681526020019081526020015f205f82825401925050819055505b8173ffffffffffffffffffffffffffffffffffffffff168373ffffffffffffffffffffffffffffffffffffffff167fddf252ad1be2c89b69c2b068fc378daa952ba7f163c4a11628f55a4df523b3ef836040516128f6919061333d565b60405180910390a3505050565b5f600267ffffffffffffffff81111561291f5761291e613471565b5b60405190808252806020026020018201604052801561294d5781602001602082028036833780820191505090505b50905030815f8151811061296457612963613ece565b5b602002602001019073ffffffffffffffffffffffffffffffffffffffff16908173ffffffffffffffffffffffffffffffffffffffff168152505060095f9054906101000a900473ffffffffffffffffffffffffffffffffffffffff1673ffffffffffffffffffffffffffffffffffffffff1663ad5c46486040518163ffffffff1660e01b8152600401602060405180830381865afa158015612a08573d5f803e3d5ffd5b505050506040513d601f19601f82011682018060405250810190612a2c9190614756565b81600181518110612a4057612a3f613ece565b5b602002602001019073ffffffffffffffffffffffffffffffffffffffff16908173ffffffffffffffffffffffffffffffffffffffff16815250505f8211612abc576040517f08c379a0000000000000000000000000000000000000000000000000000000008152600401612ab3906147f1565b60405180910390fd5b60095f9054906101000a900473ffffffffffffffffffffffffffffffffffffffff1673ffffffffffffffffffffffffffffffffffffffff1663791ac947835f8430426040518663ffffffff1660e01b8152600401612b1e959493929190614848565b5f604051808303815f87803b158015612b35575f80fd5b505af1158015612b47573d5f803e3d5ffd5b505050505050565b60095f9054906101000a900473ffffffffffffffffffffffffffffffffffffffff1673ffffffffffffffffffffffffffffffffffffffff1663f305d7198230855f80600b5f9054906101000a900473ffffffffffffffffffffffffffffffffffffffff16426040518863ffffffff1660e01b8152600401612bd5969594939291906148a0565b60606040518083038185885af1158015612bf1573d5f803e3d5ffd5b50505050506040513d601f19601f82011682018060405250810190612c169190614913565b5050505050565b5f612c27846113c1565b905081811015612c6c576040517f08c379a0000000000000000000000000000000000000000000000000000000008152600401612c63906149d3565b60405180910390fd5b5f60065f8673ffffffffffffffffffffffffffffffffffffffff1673ffffffffffffffffffffffffffffffffffffffff1681526020019081526020015f206040518060400160405290815f82015f9054906101000a900460ff161515151581526020015f820160019054906101000a900460ff16151515158152505090505f60065f8673ffffffffffffffffffffffffffffffffffffffff1673ffffffffffffffffffffffffffffffffffffffff1681526020019081526020015f206040518060400160405290815f82015f9054906101000a900460ff161515151581526020015f820160019054906101000a900460ff16151515158152505090505f826020015180612d7a575081602001515b90505f835f015180612d8c5750825f01515b15612e595760078054906101000a900460ff1680612ddc5750612dad611634565b73ffffffffffffffffffffffffffffffffffffffff163373ffffffffffffffffffffffffffffffffffffffff16145b80612e195750612dea611634565b73ffffffffffffffffffffffffffffffffffffffff163273ffffffffffffffffffffffffffffffffffffffff16145b612e58576040517f08c379a0000000000000000000000000000000000000000000000000000000008152600401612e4f90614a3b565b60405180910390fd5b5b835f01518015612e6c57505f1515821515145b8015612e845750600760069054906101000a900460ff165b15612eb957606460075f9054906101000a900460ff1660ff1687612ea89190613a58565b612eb29190613ac6565b9050612f1f565b825f01518015612ecc57505f1515821515145b8015612ee45750600760069054906101000a900460ff165b15612f1a576064600760019054906101000a900460ff1660ff1687612f099190613a58565b612f139190613ac6565b9050612f1e565b5f90505b5b600854612f2b306113c1565b118015612f4a57505f1515600760089054906101000a900460ff161515145b8015612f5c57505f1515845f01511515145b8015612f6f575060011515835f01511515145b15613006573073ffffffffffffffffffffffffffffffffffffffff16630f3d9c9f6040518163ffffffff1660e01b81526004015f604051808303815f87803b158015612fb9575f80fd5b505af1925050508015612fca575060015b613004573d805f8114612ff8576040519150601f19603f3d011682016040523d82523d5f602084013e612ffd565b606091505b5050613005565b5b5b5f811415801561302857505f1515600760089054906101000a900460ff161515145b15613053576130438888838961303e9190614625565b6126ea565b61304e8830836126ea565b61305f565b61305e8888886126ea565b5b5050505050505050565b5080545f8255905f5260205f20908101906130849190613087565b50565b5b808211156130d2575f8082015f6101000a81549073ffffffffffffffffffffffffffffffffffffffff02191690555f820160146101000a81549060ff021916905550600101613088565b5090565b5f81519050919050565b5f82825260208201905092915050565b5f5b8381101561310d5780820151818401526020810190506130f2565b5f8484015250505050565b5f601f19601f8301169050919050565b5f613132826130d6565b61313c81856130e0565b935061314c8185602086016130f0565b61315581613118565b840191505092915050565b5f6020820190508181035f8301526131788184613128565b905092915050565b5f604051905090565b5f80fd5b5f80fd5b5f73ffffffffffffffffffffffffffffffffffffffff82169050919050565b5f6131ba82613191565b9050919050565b6131ca816131b0565b81146131d4575f80fd5b50565b5f813590506131e5816131c1565b92915050565b5f819050919050565b6131fd816131eb565b8114613207575f80fd5b50565b5f81359050613218816131f4565b92915050565b5f806040838503121561323457613233613189565b5b5f613241858286016131d7565b92505060206132528582860161320a565b9150509250929050565b5f8115159050919050565b6132708161325c565b82525050565b5f6020820190506132895f830184613267565b92915050565b5f819050919050565b5f6132b26132ad6132a884613191565b61328f565b613191565b9050919050565b5f6132c382613298565b9050919050565b5f6132d4826132b9565b9050919050565b6132e4816132ca565b82525050565b5f6020820190506132fd5f8301846132db565b92915050565b5f6020828403121561331857613317613189565b5b5f613325848285016131d7565b91505092915050565b613337816131eb565b82525050565b5f6020820190506133505f83018461332e565b92915050565b61335f8161325c565b8114613369575f80fd5b50565b5f8135905061337a81613356565b92915050565b5f806040838503121561339657613395613189565b5b5f6133a3858286016131d7565b92505060206133b48582860161336c565b9150509250929050565b5f60ff82169050919050565b6133d3816133be565b82525050565b5f6020820190506133ec5f8301846133ca565b92915050565b5f805f6060848603121561340957613408613189565b5b5f613416868287016131d7565b9350506020613427868287016131d7565b92505060406134388682870161320a565b9150509250925092565b5f6020828403121561345757613456613189565b5b5f6134648482850161320a565b91505092915050565b5f80fd5b7f4e487b71000000000000000000000000000000000000000000000000000000005f52604160045260245ffd5b6134a782613118565b810181811067ffffffffffffffff821117156134c6576134c5613471565b5b80604052505050565b5f6134d8613180565b90506134e4828261349e565b919050565b5f67ffffffffffffffff82111561350357613502613471565b5b602082029050602081019050919050565b5f80fd5b5f61352a613525846134e9565b6134cf565b9050808382526020820190506020840283018581111561354d5761354c613514565b5b835b81811015613576578061356288826131d7565b84526020840193505060208101905061354f565b5050509392505050565b5f82601f8301126135945761359361346d565b5b81356135a4848260208601613518565b91505092915050565b5f67ffffffffffffffff8211156135c7576135c6613471565b5b602082029050602081019050919050565b6135e1816133be565b81146135eb575f80fd5b50565b5f813590506135fc816135d8565b92915050565b5f61361461360f846135ad565b6134cf565b9050808382526020820190506020840283018581111561363757613636613514565b5b835b81811015613660578061364c88826135ee565b845260208401935050602081019050613639565b5050509392505050565b5f82601f83011261367e5761367d61346d565b5b813561368e848260208601613602565b91505092915050565b5f80604083850312156136ad576136ac613189565b5b5f83013567ffffffffffffffff8111156136ca576136c961318d565b5b6136d685828601613580565b925050602083013567ffffffffffffffff8111156136f7576136f661318d565b5b6137038582860161366a565b9150509250929050565b5f806040838503121561372357613722613189565b5b5f613730858286016135ee565b9250506020613741858286016135ee565b9150509250929050565b5f805f6060848603121561376257613761613189565b5b5f61376f868287016135ee565b9350506020613780868287016135ee565b9250506040613791868287016135ee565b9150509250925092565b6137a4816131b0565b82525050565b5f6020820190506137bd5f83018461379b565b92915050565b5f6040820190506137d65f830185613267565b6137e36020830184613267565b9392505050565b5f602082840312156137ff576137fe613189565b5b5f61380c8482850161336c565b91505092915050565b5f81519050919050565b5f82825260208201905092915050565b5f819050602082019050919050565b613847816131b0565b82525050565b613856816133be565b82525050565b604082015f8201516138705f85018261383e565b506020820151613883602085018261384d565b50505050565b5f613894838361385c565b60408301905092915050565b5f602082019050919050565b5f6138b682613815565b6138c0818561381f565b93506138cb8361382f565b805f5b838110156138fb5781516138e28882613889565b97506138ed836138a0565b9250506001810190506138ce565b5085935050505092915050565b5f6020820190508181035f83015261392081846138ac565b905092915050565b5f806040838503121561393e5761393d613189565b5b5f61394b858286016131d7565b925050602061395c858286016131d7565b9150509250929050565b7f4e487b71000000000000000000000000000000000000000000000000000000005f52602260045260245ffd5b5f60028204905060018216806139aa57607f821691505b6020821081036139bd576139bc613966565b5b50919050565b7f42617365645369676d613a206f776e65722f636f6e7472616374206f6e6c79005f82015250565b5f6139f7601f836130e0565b9150613a02826139c3565b602082019050919050565b5f6020820190508181035f830152613a24816139eb565b9050919050565b7f4e487b71000000000000000000000000000000000000000000000000000000005f52601160045260245ffd5b5f613a62826131eb565b9150613a6d836131eb565b9250828202613a7b816131eb565b91508282048414831517613a9257613a91613a2b565b5b5092915050565b7f4e487b71000000000000000000000000000000000000000000000000000000005f52601260045260245ffd5b5f613ad0826131eb565b9150613adb836131eb565b925082613aeb57613aea613a99565b5b828204905092915050565b5f613b00826131eb565b9150613b0b836131eb565b9250828201905080821115613b2357613b22613a2b565b5b92915050565b7f42617365645369676d613a2043616e27742064697374726962757465207468655f8201527f2066756e64730000000000000000000000000000000000000000000000000000602082015250565b5f613b836026836130e0565b9150613b8e82613b29565b604082019050919050565b5f6020820190508181035f830152613bb081613b77565b9050919050565b5f606082019050613bca5f83018661332e565b613bd7602083018561332e565b613be4604083018461332e565b949350505050565b7f42617365645369676d613a2043616e2774206368616e676520636f6e747261635f8201527f7400000000000000000000000000000000000000000000000000000000000000602082015250565b5f613c466021836130e0565b9150613c5182613bec565b604082019050919050565b5f6020820190508181035f830152613c7381613c3a565b9050919050565b5f604082019050613c8d5f83018561379b565b613c9a6020830184613267565b9392505050565b7f42617365645369676d613a20616d6f756e742063616e277420626520300000005f82015250565b5f613cd5601d836130e0565b9150613ce082613ca1565b602082019050919050565b5f6020820190508181035f830152613d0281613cc9565b9050919050565b5f81905092915050565b50565b5f613d215f83613d09565b9150613d2c82613d13565b5f82019050919050565b5f613d4082613d16565b9150819050919050565b7f6661696c656420746f2073656e642065746800000000000000000000000000005f82015250565b5f613d7e6012836130e0565b9150613d8982613d4a565b602082019050919050565b5f6020820190508181035f830152613dab81613d72565b9050919050565b7f42617365645369676d613a204e6f206f66206164647265737320616e64204e6f5f8201527f206f662050657263656e746167657320646f65736e2774206d61746368210000602082015250565b5f613e0c603e836130e0565b9150613e1782613db2565b604082019050919050565b5f6020820190508181035f830152613e3981613e00565b9050919050565b7f42617365645369676d613a204d6178203130207374616b696e6720636f6e74725f8201527f6163747320616c6c6f7765642100000000000000000000000000000000000000602082015250565b5f613e9a602d836130e0565b9150613ea582613e40565b604082019050919050565b5f6020820190508181035f830152613ec781613e8e565b9050919050565b7f4e487b71000000000000000000000000000000000000000000000000000000005f52603260045260245ffd5b7f42617365645369676d613a2070657263656e746167652073686f756c642062655f8201527f206265747765656e20203020746f203130302100000000000000000000000000602082015250565b5f613f556033836130e0565b9150613f6082613efb565b604082019050919050565b5f6020820190508181035f830152613f8281613f49565b9050919050565b7f42617365645369676d613a205374616b696e6720636f6e7472616374206d61795f8201527f206e6f7420626520307830000000000000000000000000000000000000000000602082015250565b5f613fe3602b836130e0565b9150613fee82613f89565b604082019050919050565b5f6020820190508181035f83015261401081613fd7565b9050919050565b5f614021826133be565b915061402c836133be565b9250828201905060ff81111561404557614044613a2b565b5b92915050565b5f614055826131eb565b91507fffffffffffffffffffffffffffffffffffffffffffffffffffffffffffffffff820361408757614086613a2b565b5b600182019050919050565b7f42617365645369676d613a20546f74616c2050657263656e746167652073686f5f8201527f756c64206265203130302e000000000000000000000000000000000000000000602082015250565b5f6140ec602b836130e0565b91506140f782614092565b604082019050919050565b5f6020820190508181035f830152614119816140e0565b9050919050565b5f81519050919050565b5f82825260208201905092915050565b5f819050602082019050919050565b5f614154838361383e565b60208301905092915050565b5f602082019050919050565b5f61417682614120565b614180818561412a565b935061418b8361413a565b805f5b838110156141bb5781516141a28882614149565b97506141ad83614160565b92505060018101905061418e565b5085935050505092915050565b5f81519050919050565b5f82825260208201905092915050565b5f819050602082019050919050565b5f6141fc838361384d565b60208301905092915050565b5f602082019050919050565b5f61421e826141c8565b61422881856141d2565b9350614233836141e2565b805f5b8381101561426357815161424a88826141f1565b975061425583614208565b925050600181019050614236565b5085935050505092915050565b5f6040820190508181035f830152614288818561416c565b9050818103602083015261429c8184614214565b90509392505050565b7f42617365645369676d613a205461782069732072656e6f756e636564210000005f82015250565b5f6142d9601d836130e0565b91506142e4826142a5565b602082019050919050565b5f6020820190508181035f830152614306816142cd565b9050919050565b7f42617365645369676d613a205461782053686f756c64206265206c65737320745f8201527f68656e2031302100000000000000000000000000000000000000000000000000602082015250565b5f6143676027836130e0565b91506143728261430d565b604082019050919050565b5f6020820190508181035f8301526143948161435b565b9050919050565b5f6040820190506143ae5f8301856133ca565b6143bb60208301846133ca565b9392505050565b7f42617365645369676d613a2050657263656e746167652073686f756c642073755f8201527f6d20746f20313030210000000000000000000000000000000000000000000000602082015250565b5f61441c6029836130e0565b9150614427826143c2565b604082019050919050565b5f6020820190508181035f83015261444981614410565b9050919050565b5f6060820190506144635f8301866133ca565b61447060208301856133ca565b61447d60408301846133ca565b949350505050565b7f42617365645369676d613a204164647265737320616c726561647920736574005f82015250565b5f6144b9601f836130e0565b91506144c482614485565b602082019050919050565b5f6020820190508181035f8301526144e6816144ad565b9050919050565b7f42617365645369676d613a205468726573686f6c642063616e277420626520305f82015250565b5f6145216020836130e0565b915061452c826144ed565b602082019050919050565b5f6020820190508181035f83015261454e81614515565b9050919050565b7f42617365645369676d613a2063616e74206368616e676520636f6e74726163745f82015250565b5f6145896020836130e0565b915061459482614555565b602082019050919050565b5f6020820190508181035f8301526145b68161457d565b9050919050565b7f42617365645369676d613a2054726164696e6720616c7265616479206f70656e5f82015250565b5f6145f16020836130e0565b91506145fc826145bd565b602082019050919050565b5f6020820190508181035f83015261461e816145e5565b9050919050565b5f61462f826131eb565b915061463a836131eb565b925082820390508181111561465257614651613a2b565b5b92915050565b5f60408201905061466b5f83018561332e565b614678602083018461332e565b9392505050565b7f42617365645369676d613a204661696c656420746f2073656e642045544820745f8201527f6f20746178206164647265737300000000000000000000000000000000000000602082015250565b5f6146d9602d836130e0565b91506146e48261467f565b604082019050919050565b5f6020820190508181035f830152614706816146cd565b9050919050565b5f6060820190506147205f83018661379b565b61472d602083018561332e565b61473a604083018461332e565b949350505050565b5f81519050614750816131c1565b92915050565b5f6020828403121561476b5761476a613189565b5b5f61477884828501614742565b91505092915050565b7f42617365645369676d613a20546f6b656e20616d6f756e74206c6573732074685f8201527f656e203020666f7220746f6b656e207377617000000000000000000000000000602082015250565b5f6147db6033836130e0565b91506147e682614781565b604082019050919050565b5f6020820190508181035f830152614808816147cf565b9050919050565b5f819050919050565b5f61483261482d6148288461480f565b61328f565b6131eb565b9050919050565b61484281614818565b82525050565b5f60a08201905061485b5f83018861332e565b6148686020830187614839565b818103604083015261487a818661416c565b9050614889606083018561379b565b614896608083018461332e565b9695505050505050565b5f60c0820190506148b35f83018961379b565b6148c0602083018861332e565b6148cd6040830187614839565b6148da6060830186614839565b6148e7608083018561379b565b6148f460a083018461332e565b979650505050505050565b5f8151905061490d816131f4565b92915050565b5f805f6060848603121561492a57614929613189565b5b5f614937868287016148ff565b9350506020614948868287016148ff565b9250506040614959868287016148ff565b9150509250925092565b7f45524332303a207472616e7366657220616d6f756e74206578636565647320625f8201527f616c616e63650000000000000000000000000000000000000000000000000000602082015250565b5f6149bd6026836130e0565b91506149c882614963565b604082019050919050565b5f6020820190508181035f8301526149ea816149b1565b9050919050565b7f42617365645369676d613a2054726164696e67206e6f74206f70656e207965745f82015250565b5f614a256020836130e0565b9150614a30826149f1565b602082019050919050565b5f6020820190508181035f830152614a5281614a19565b905091905056fea2646970667358221220870ecd5f79b2e965f14279882827253522f9b19ac8ac4e163ec2443ee680de9964736f6c63430008150033",
  "immutableReferences": {},
  "source": "// SPDX-License-Identifier: MIT\r\npragma solidity ^0.8.20;\r\n\r\nimport \"@openzeppelin/contracts/token/ERC20/ERC20.sol\";\r\nimport \"@openzeppelin/contracts/token/ERC20/utils/SafeERC20.sol\";\r\nimport \"@openzeppelin/contracts/token/ERC20/extensions/ERC20Burnable.sol\";\r\nimport \"@openzeppelin/contracts/access/Ownable.sol\";\r\nimport \"@uniswap/v2-periphery/contracts/interfaces/IUniswapV2Router02.sol\";\r\nimport \"@uniswap/v2-core/contracts/interfaces/IUniswapV2Factory.sol\";\r\n\r\n/// @title This is official MAGNET Token contract ERC20 used in the Based Sigma platform\r\n/// @author Based Sigma Team\r\n\r\nstruct StakingContract {\r\n    address contractAddress;\r\n    uint8 percentage;\r\n}\r\n\r\ncontract BasedSigmaToken is ERC20, Ownable {\r\n    using SafeERC20 for IERC20;\r\n    /*//////////////////////////////////////////////////////////////\r\n                            TAX VARIABLES\r\n    //////////////////////////////////////////////////////////////*/\r\n    struct WalletState {\r\n        bool isMarketPair;\r\n        bool isExemptFromTax;\r\n    }\r\n    // Saves gas!\r\n    mapping(address => WalletState) public walletStates;\r\n\r\n    // Set to 10/10 when trading is open. SetTaxes can only set it\r\n    // up to 10/10.\r\n    uint8 public buyTax = 0;\r\n    uint8 public sellTax = 0;\r\n\r\n    // Must always add up to 100.\r\n    uint8 public platformPercentage = 50;\r\n    uint8 public stakerPercentage = 50;\r\n    uint8 public lpPercentage = 0;\r\n\r\n    // When set is true, tax will no longer be change-able.\r\n    bool private _isTaxRenounced = false;\r\n    bool private _isTaxEnabled = true;\r\n\r\n    /*//////////////////////////////////////////////////////////////\r\n                            CONTRACT SWAP\r\n    //////////////////////////////////////////////////////////////*/\r\n\r\n    // Once switched on, can never be switched off.\r\n    bool public isTradingOpen = false;\r\n\r\n    bool private _inSwap = false;\r\n    uint256 public taxDistributionThreshold = 5_000_000 * 10 ** 18;\r\n\r\n    /*//////////////////////////////////////////////////////////////\r\n                            UNISWAP\r\n    //////////////////////////////////////////////////////////////*/\r\n\r\n    IUniswapV2Router02 public uniswapV2Router;\r\n\r\n    /*//////////////////////////////////////////////////////////////\r\n                            TAX RECIPIENTS\r\n    //////////////////////////////////////////////////////////////*/\r\n\r\n    // Platform cut will be sent to this address.\r\n    // Defaults to contract creator.\r\n    address public taxAddress;\r\n\r\n    // LP tokens will be sent to this address.\r\n    // Defaults to contract creator.\r\n    address public lpAddress;\r\n\r\n    // Staking cut will be distributed to these contracts.\r\n    // The percentages must always add up to 100.\r\n    StakingContract[] private _stakingContracts;\r\n\r\n    /*//////////////////////////////////////////////////////////////\r\n                            EVENTS\r\n    //////////////////////////////////////////////////////////////*/\r\n\r\n    event TaxDistributed(\r\n        uint256 platformCut,\r\n        uint256 stakersCut,\r\n        uint256 liquidityCut\r\n    );\r\n    event LiquidityAdded(uint256 tokenAmount, uint256 ethAmount);\r\n    event PlatformTaxDistributed(uint256 amount);\r\n\r\n    event UniswapRouterUpdated(address newRouter);\r\n    event ExcludedFromFeesUpdated(address wallet, bool isExcluded);\r\n    event MarketPairUpdated(address pair, bool isMarketPair);\r\n\r\n    event StakingContractsUpdated(\r\n        address[] stakingContracts,\r\n        uint8[] percentages\r\n    );\r\n    event TaxAddressUpdated(address newTaxAddress);\r\n    event LpAddressUpdated(address newLpAddress);\r\n\r\n    event TradingOpen();\r\n    event TaxRenounced();\r\n    event TaxStatusUpdated(bool isTaxEnabled);\r\n    event TaxesUpdated(uint8 buyTax, uint8 sellTax);\r\n\r\n    event DistributionThresholdUpdated(uint256 newThreshold);\r\n    event DistributionPercentagesUpdated(\r\n        uint8 platformPercentage,\r\n        uint8 stakerPercentage,\r\n        uint8 lpPercentage\r\n    );\r\n\r\n    /*//////////////////////////////////////////////////////////////\r\n                            MAIN LOGIC\r\n    //////////////////////////////////////////////////////////////*/\r\n\r\n    constructor() ERC20(\"Based Sigma\", \"SIGMA\") Ownable(msg.sender) {\r\n        super._update(address(0), msg.sender, (10_000_000 * 10 ** 18));\r\n\r\n        address uniswapV2Router02Address = 0x4752ba5DBc23f44D87826276BF6Fd6b1C372aD24;\r\n        IUniswapV2Router02 _uniswapV2Router = IUniswapV2Router02(\r\n            uniswapV2Router02Address\r\n        );\r\n\r\n        // Create the pair and mark it as a market pair to enable taxes.\r\n        address uniswapV2Pair = IUniswapV2Factory(_uniswapV2Router.factory())\r\n            .createPair(address(this), _uniswapV2Router.WETH());\r\n        uniswapV2Router = _uniswapV2Router;\r\n        _approve(address(this), uniswapV2Router02Address, type(uint256).max);\r\n        setMarketPair(uniswapV2Pair, true);\r\n\r\n        taxAddress = msg.sender;\r\n        lpAddress = msg.sender;\r\n\r\n        // Exclude owner, this contract and Uniswap router from fees.\r\n        walletStates[msg.sender] = WalletState({\r\n            isMarketPair: false,\r\n            isExemptFromTax: true\r\n        });\r\n        emit ExcludedFromFeesUpdated(msg.sender, true);\r\n        walletStates[address(this)] = WalletState({\r\n            isMarketPair: false,\r\n            isExemptFromTax: true\r\n        });\r\n        emit ExcludedFromFeesUpdated(address(this), true);\r\n        walletStates[uniswapV2Router02Address] = WalletState({\r\n            isMarketPair: false,\r\n            isExemptFromTax: true\r\n        });\r\n        emit ExcludedFromFeesUpdated(uniswapV2Router02Address, true);\r\n    }\r\n\r\n    receive() external payable {}\r\n\r\n    /// @notice Returns if an address is excluded from tax.\r\n    function isTaxExempt(address account_) external view returns (bool) {\r\n        return walletStates[account_].isExemptFromTax;\r\n    }\r\n\r\n    /// @notice Returns if the tax is enabled or not. Tax only exists on market pairs.\r\n    function isTaxEnabled() external view returns (bool) {\r\n        return _isTaxEnabled;\r\n    }\r\n\r\n    /// @notice Returns if tax is renounced, meaning that the taxes cannot be changed.\r\n    function isTaxRenounced() external view returns (bool) {\r\n        return _isTaxRenounced;\r\n    }\r\n\r\n    /// @notice _update function overrides the _update function from the perent contract and contains logic for tax and tax distribution\r\n    /// @dev this override function will be called from the top level transfer and transferFrom function whenever user initates transfer or buy and sell happens\r\n    /// @dev this function breaks _mint. Use super._update instead.\r\n    /// @param from address from the amount will be transfered\r\n    /// @param to address to where the amount will be transfered\r\n    /// @param amount number of tokens to transfer\r\n    function _update(\r\n        address from,\r\n        address to,\r\n        uint256 amount\r\n    ) internal override {\r\n        // Parent ERC20 already checks that from/to are not zero address.\r\n\r\n        uint256 fromBalance = balanceOf(from);\r\n        require(\r\n            fromBalance >= amount,\r\n            \"ERC20: transfer amount exceeds balance\"\r\n        );\r\n\r\n        WalletState memory fromState = walletStates[from];\r\n        WalletState memory toState = walletStates[to];\r\n\r\n        bool isTaxExempt_ = (fromState.isExemptFromTax ||\r\n            toState.isExemptFromTax);\r\n\r\n        uint256 taxAmount;\r\n\r\n        if (fromState.isMarketPair || toState.isMarketPair) {\r\n            require(\r\n                isTradingOpen || msg.sender == owner() || tx.origin == owner(),\r\n                \"BasedSigma: Trading not open yet\"\r\n            );\r\n        }\r\n\r\n        if (fromState.isMarketPair && isTaxExempt_ == false && _isTaxEnabled) {\r\n            taxAmount = (amount * buyTax) / 100;\r\n        } else if (\r\n            toState.isMarketPair && isTaxExempt_ == false && _isTaxEnabled\r\n        ) {\r\n            taxAmount = (amount * sellTax) / 100;\r\n        } else {\r\n            taxAmount = 0;\r\n        }\r\n\r\n        if (\r\n            balanceOf(address(this)) > taxDistributionThreshold &&\r\n            _inSwap == false &&\r\n            fromState.isMarketPair == false && // Don't swap on buys.\r\n            toState.isMarketPair == true // Only swap on sells.\r\n        ) {\r\n            try this.distributeTax() {} catch (bytes memory) {}\r\n        }\r\n\r\n        if (taxAmount != 0 && _inSwap == false) {\r\n            super._update(from, to, amount - taxAmount);\r\n            super._update(from, address(this), taxAmount);\r\n        } else {\r\n            super._update(from, to, amount);\r\n        }\r\n    }\r\n\r\n    modifier lockTheSwap() {\r\n        _inSwap = true;\r\n        _;\r\n        _inSwap = false;\r\n    }\r\n\r\n    /// @notice Distributes the collected tax to the platform, stakers and liquidity.\r\n    function distributeTax() external lockTheSwap {\r\n        require(\r\n            msg.sender == address(this) || msg.sender == owner(),\r\n            \"BasedSigma: owner/contract only\"\r\n        );\r\n\r\n        uint256 contractBalance = balanceOf(address(this));\r\n        uint256 platformCut = (contractBalance * platformPercentage) / 100;\r\n        uint256 stakerCut = (contractBalance * stakerPercentage) / 100;\r\n        uint256 lpCut = 0;\r\n        if (lpPercentage > 0) {\r\n            lpCut = (contractBalance * lpPercentage) / 100;\r\n        }\r\n\r\n        require(\r\n            (platformCut + stakerCut + lpCut) <= balanceOf(address(this)),\r\n            \"BasedSigma: Can't distribute the funds\"\r\n        );\r\n        _distributeStakersCut(stakerCut);\r\n        _handleLiquidityAndPlatformCut(platformCut, lpCut);\r\n        emit TaxDistributed(platformCut, stakerCut, lpCut);\r\n    }\r\n\r\n    /// @notice Distributes the stakers cut to the staking contracts.\r\n    /// @dev All staking contract's percentages must add up to exactly 100.\r\n    function _distributeStakersCut(uint256 stakersCut_) private {\r\n        for (uint256 i = 0; i < _stakingContracts.length; i++) {\r\n            StakingContract memory sc = _stakingContracts[i];\r\n\r\n            uint256 stakerContractCut = (sc.percentage * stakersCut_) / 100;\r\n\r\n            super._update(address(this), sc.contractAddress, stakerContractCut);\r\n        }\r\n    }\r\n\r\n    /// @notice Distributes liquidity and platform cut. Swaps both to ETH, adds liquidity, and sends the remaining ETH to the tax address.\r\n    /// @param platformCut amount of tokens to swap and send as ETH to taxAddress.\r\n    /// @param lpCut half tokens are swapped, half added to liquidity.\r\n    function _handleLiquidityAndPlatformCut(\r\n        uint256 platformCut,\r\n        uint256 lpCut\r\n    ) private {\r\n        uint256 initBal = address(this).balance;\r\n\r\n        if (lpCut > 0) {\r\n            _swapTokensForEth(lpCut / 2 - 1 + platformCut);\r\n            uint256 receiveBalance = address(this).balance - initBal;\r\n            uint256 ethForLiq = (receiveBalance * lpCut) /\r\n                (lpCut + platformCut);\r\n            _addLiquidity(lpCut / 2, ethForLiq);\r\n            emit LiquidityAdded(lpCut / 2, ethForLiq);\r\n        } else {\r\n            _swapTokensForEth(platformCut);\r\n        }\r\n\r\n        // Send any remaining ETH to the tax address. This will equal to the platform cut.\r\n        uint256 amount = address(this).balance;\r\n        (bool success, ) = taxAddress.call{value: amount}(\"\");\r\n        require(success, \"BasedSigma: Failed to send ETH to tax address\");\r\n        emit PlatformTaxDistributed(amount);\r\n    }\r\n\r\n    /// @notice Swaps the token amount to ETH using the Uniswap V2 router.\r\n    function _swapTokensForEth(uint256 tokenAmount_) private {\r\n        address[] memory path = new address[](2);\r\n        path[0] = address(this);\r\n        path[1] = uniswapV2Router.WETH();\r\n\r\n        require(\r\n            tokenAmount_ > 0,\r\n            \"BasedSigma: Token amount less then 0 for token swap\"\r\n        );\r\n        uniswapV2Router.swapExactTokensForETHSupportingFeeOnTransferTokens(\r\n            tokenAmount_,\r\n            0,\r\n            path,\r\n            address(this),\r\n            block.timestamp\r\n        );\r\n    }\r\n\r\n    /// @notice Adds liquidity to the Uniswap V2 pair. LP tokens are sent to the lpAddress.\r\n    /// @dev Approvals happen when setting the router address.\r\n    function _addLiquidity(uint256 tokenAmount_, uint256 ethAmount_) private {\r\n        uniswapV2Router.addLiquidityETH{value: ethAmount_}(\r\n            address(this),\r\n            tokenAmount_,\r\n            0,\r\n            0,\r\n            lpAddress,\r\n            block.timestamp\r\n        );\r\n    }\r\n\r\n    /*//////////////////////////////////////////////////////////////\r\n                            STAKING CONTRACTS\r\n    //////////////////////////////////////////////////////////////*/\r\n\r\n    /// @notice Retrieves the Staking contract address and their percentages.\r\n    function getStakingContracts()\r\n        public\r\n        view\r\n        returns (StakingContract[] memory)\r\n    {\r\n        return _stakingContracts;\r\n    }\r\n\r\n    /// @notice Sets the staking contracts and their respective percentages. Percentages must add up to 100.\r\n    /// @dev Deletes any previous _stakingContracts.\r\n    /// @param stakingContracts_ The array of Staking contract addresses\r\n    /// @param percentages_ The array of Staking contract distribution perccentages\r\n    function updateStakingContracts(\r\n        address[] memory stakingContracts_,\r\n        uint8[] memory percentages_\r\n    ) external onlyOwner {\r\n        require(\r\n            stakingContracts_.length == percentages_.length,\r\n            \"BasedSigma: No of address and No of Percentages doesn't match!\"\r\n        );\r\n        require(\r\n            stakingContracts_.length <= 10,\r\n            \"BasedSigma: Max 10 staking contracts allowed!\"\r\n        );\r\n\r\n        // Clear the existing staking contracts.\r\n        delete _stakingContracts;\r\n\r\n        uint8 totalPercent = 0;\r\n        for (uint256 i = 0; i < stakingContracts_.length; i++) {\r\n            require(\r\n                percentages_[i] >= 0 && percentages_[i] <= 100,\r\n                \"BasedSigma: percentage should be between  0 to 100!\"\r\n            );\r\n            require(\r\n                stakingContracts_[i] != address(0),\r\n                \"BasedSigma: Staking contract may not be 0x0\"\r\n            );\r\n\r\n            _stakingContracts.push(\r\n                StakingContract(stakingContracts_[i], percentages_[i])\r\n            );\r\n            totalPercent += percentages_[i];\r\n        }\r\n        require(\r\n            totalPercent == 100,\r\n            \"BasedSigma: Total Percentage should be 100.\"\r\n        );\r\n\r\n        emit StakingContractsUpdated(stakingContracts_, percentages_);\r\n    }\r\n\r\n    /*//////////////////////////////////////////////////////////////\r\n                            OWNER FUNCTIONS\r\n    //////////////////////////////////////////////////////////////*/\r\n\r\n    /// @notice Opens the trading, enabling taxes. Can only be called once.\r\n    function openTrading() external onlyOwner {\r\n        require(isTradingOpen == false, \"BasedSigma: Trading already open\");\r\n\r\n        isTradingOpen = true;\r\n        buyTax = 10;\r\n        sellTax = 10;\r\n\r\n        emit TradingOpen();\r\n    }\r\n\r\n    /// @notice Renounces the tax, meaning that it can never be changed again.\r\n    function renounceTax() public onlyOwner {\r\n        _isTaxRenounced = true;\r\n        emit TaxRenounced();\r\n    }\r\n\r\n    /// @notice Sets the Uniswap router address to use for swapping taxes and adding liquidity.\r\n    function updateUniswapRouter(address newRouter) external onlyOwner {\r\n        address oldAddress = address(uniswapV2Router);\r\n        require(oldAddress != newRouter, \"BasedSigma: Address already set\");\r\n\r\n        _approve(address(this), oldAddress, 0);\r\n        _approve(address(this), newRouter, type(uint256).max);\r\n\r\n        uniswapV2Router = IUniswapV2Router02(newRouter);\r\n\r\n        emit UniswapRouterUpdated(newRouter);\r\n    }\r\n\r\n    /// @notice Sets an address's tax exempt status.\r\n    function setTaxExempt(address account, bool isExempt) external onlyOwner {\r\n        require(account != address(this), \"BasedSigma: Can't change contract\");\r\n        WalletState memory state = walletStates[account];\r\n        state.isExemptFromTax = isExempt;\r\n        walletStates[account] = state;\r\n        emit ExcludedFromFeesUpdated(account, isExempt);\r\n    }\r\n\r\n    /// @notice Toggles if tax is enabled or not.\r\n    function setTaxEnabled(bool taxStatus_) external onlyOwner {\r\n        _isTaxEnabled = taxStatus_;\r\n\r\n        emit TaxStatusUpdated(taxStatus_);\r\n    }\r\n\r\n    /// @notice Set the receiver of platform taxes.\r\n    function setTaxAddress(address newTaxAddress_) external onlyOwner {\r\n        taxAddress = newTaxAddress_;\r\n        emit TaxAddressUpdated(newTaxAddress_);\r\n    }\r\n\r\n    /// @notice Sets the address that will receive LP tokens from liquidity adds.\r\n    function setLpAddress(address newLpAddress_) external onlyOwner {\r\n        lpAddress = newLpAddress_;\r\n        emit LpAddressUpdated(newLpAddress_);\r\n    }\r\n\r\n    /// @notice Sets the tax percentages for buy and sell. Can only be called before tax is renounced.\r\n    /// @dev it sets buyTax to the newBuyTax_ and sellTax to the newSellTax_\r\n    /// @param newBuyTax_ new buy tax. Cannot exceed 10.\r\n    /// @param newSellTax_ new sell tax. Cannot exceed 10.\r\n    function setTaxAmount(\r\n        uint8 newBuyTax_,\r\n        uint8 newSellTax_\r\n    ) external onlyOwner {\r\n        require(_isTaxRenounced == false, \"BasedSigma: Tax is renounced!\");\r\n        require(\r\n            newBuyTax_ <= 10 && newSellTax_ <= 10,\r\n            \"BasedSigma: Tax Should be less then 10!\"\r\n        );\r\n        buyTax = newBuyTax_;\r\n        sellTax = newSellTax_;\r\n        emit TaxesUpdated(newBuyTax_, newSellTax_);\r\n    }\r\n\r\n    /// @notice setMarketPair updates the market pair status. Taxes apply from/to market pairs.\r\n    function setMarketPair(address account, bool value) public onlyOwner {\r\n        require(account != address(this), \"BasedSigma: cant change contract\");\r\n        WalletState memory state = walletStates[account];\r\n        state.isMarketPair = value;\r\n        walletStates[account] = state;\r\n        emit MarketPairUpdated(account, value);\r\n    }\r\n\r\n    /// @notice Updates the tax distribution percentage between platform, stakers and liquidity.\r\n    /// @dev sum of all three percentage must be == 100 for proper distribution.\r\n    /// @param platformPercentage_ percentage for the platform\r\n    /// @param stakerPercentage_ percentage for the stakers\r\n    /// @param lpPercentage_ percentage for the liquidity\r\n    function setDistributionPercentage(\r\n        uint8 platformPercentage_,\r\n        uint8 stakerPercentage_,\r\n        uint8 lpPercentage_\r\n    ) external onlyOwner {\r\n        require(\r\n            (platformPercentage_ + stakerPercentage_ + lpPercentage_) == 100,\r\n            \"BasedSigma: Percentage should sum to 100!\"\r\n        );\r\n        platformPercentage = platformPercentage_;\r\n        stakerPercentage = stakerPercentage_;\r\n        lpPercentage = lpPercentage_;\r\n        emit DistributionPercentagesUpdated(\r\n            platformPercentage_,\r\n            stakerPercentage_,\r\n            lpPercentage_\r\n        );\r\n    }\r\n\r\n    /// @notice Changes the balance threshold for when tax is distributed.\r\n    /// @dev it sets taxDistributionThreshold to newTaxDistributionThreshold_ also multiply it with the decimals\r\n    /// @param newTaxDistributionThreshold_ number of whole tokens for the threshold. Decimals are added automatically.\r\n    function changeTaxDistributionThreshold(\r\n        uint256 newTaxDistributionThreshold_\r\n    ) external onlyOwner {\r\n        require(\r\n            newTaxDistributionThreshold_ > 0,\r\n            \"BasedSigma: Threshold can't be 0\"\r\n        );\r\n        taxDistributionThreshold = newTaxDistributionThreshold_ * 10 ** 18;\r\n        emit DistributionThresholdUpdated(newTaxDistributionThreshold_);\r\n    }\r\n\r\n    /// @notice Rescues any ETH that are stuck in the contract.\r\n    function rescueStuckETH(uint256 amount_) external onlyOwner {\r\n        require(amount_ > 0, \"BasedSigma: amount can't be 0\");\r\n        (bool success, ) = msg.sender.call{value: amount_}(\"\");\r\n        require(success, \"failed to send eth\");\r\n    }\r\n}\r\n",
  "sourcePath": "C:\\Users\\Baby\\Desktop\\BasedsigmaContracts\\contracts\\BasedSigmaToken.sol",
  "compiler": {
    "name": "solc",
    "version": "0.8.21+commit.d9974bed.Emscripten.clang"
  },
  "schemaVersion": "3.4.16",
  "updatedAt": "2024-04-20T12:48:56.230Z",
  "devdoc": {
    "errors": {
      "ERC20InsufficientAllowance(address,uint256,uint256)": [
        {
          "details": "Indicates a failure with the `spender`s `allowance`. Used in transfers.",
          "params": {
            "allowance": "Amount of tokens a `spender` is allowed to operate with.",
            "needed": "Minimum amount required to perform a transfer.",
            "spender": "Address that may be allowed to operate on tokens without being their owner."
          }
        }
      ],
      "ERC20InsufficientBalance(address,uint256,uint256)": [
        {
          "details": "Indicates an error related to the current `balance` of a `sender`. Used in transfers.",
          "params": {
            "balance": "Current balance for the interacting account.",
            "needed": "Minimum amount required to perform a transfer.",
            "sender": "Address whose tokens are being transferred."
          }
        }
      ],
      "ERC20InvalidApprover(address)": [
        {
          "details": "Indicates a failure with the `approver` of a token to be approved. Used in approvals.",
          "params": {
            "approver": "Address initiating an approval operation."
          }
        }
      ],
      "ERC20InvalidReceiver(address)": [
        {
          "details": "Indicates a failure with the token `receiver`. Used in transfers.",
          "params": {
            "receiver": "Address to which tokens are being transferred."
          }
        }
      ],
      "ERC20InvalidSender(address)": [
        {
          "details": "Indicates a failure with the token `sender`. Used in transfers.",
          "params": {
            "sender": "Address whose tokens are being transferred."
          }
        }
      ],
      "ERC20InvalidSpender(address)": [
        {
          "details": "Indicates a failure with the `spender` to be approved. Used in approvals.",
          "params": {
            "spender": "Address that may be allowed to operate on tokens without being their owner."
          }
        }
      ],
      "OwnableInvalidOwner(address)": [
        {
          "details": "The owner is not a valid owner account. (eg. `address(0)`)"
        }
      ],
      "OwnableUnauthorizedAccount(address)": [
        {
          "details": "The caller account is not authorized to perform an operation."
        }
      ]
    },
    "events": {
      "Approval(address,address,uint256)": {
        "details": "Emitted when the allowance of a `spender` for an `owner` is set by a call to {approve}. `value` is the new allowance."
      },
      "Transfer(address,address,uint256)": {
        "details": "Emitted when `value` tokens are moved from one account (`from`) to another (`to`). Note that `value` may be zero."
      }
    },
    "kind": "dev",
    "methods": {
      "allowance(address,address)": {
        "details": "See {IERC20-allowance}."
      },
      "approve(address,uint256)": {
        "details": "See {IERC20-approve}. NOTE: If `value` is the maximum `uint256`, the allowance is not updated on `transferFrom`. This is semantically equivalent to an infinite approval. Requirements: - `spender` cannot be the zero address."
      },
      "balanceOf(address)": {
        "details": "See {IERC20-balanceOf}."
      },
      "changeTaxDistributionThreshold(uint256)": {
        "details": "it sets taxDistributionThreshold to newTaxDistributionThreshold_ also multiply it with the decimals",
        "params": {
          "newTaxDistributionThreshold_": "number of whole tokens for the threshold. Decimals are added automatically."
        }
      },
      "decimals()": {
        "details": "Returns the number of decimals used to get its user representation. For example, if `decimals` equals `2`, a balance of `505` tokens should be displayed to a user as `5.05` (`505 / 10 ** 2`). Tokens usually opt for a value of 18, imitating the relationship between Ether and Wei. This is the default value returned by this function, unless it's overridden. NOTE: This information is only used for _display_ purposes: it in no way affects any of the arithmetic of the contract, including {IERC20-balanceOf} and {IERC20-transfer}."
      },
      "name()": {
        "details": "Returns the name of the token."
      },
      "owner()": {
        "details": "Returns the address of the current owner."
      },
      "renounceOwnership()": {
        "details": "Leaves the contract without owner. It will not be possible to call `onlyOwner` functions. Can only be called by the current owner. NOTE: Renouncing ownership will leave the contract without an owner, thereby disabling any functionality that is only available to the owner."
      },
      "setDistributionPercentage(uint8,uint8,uint8)": {
        "details": "sum of all three percentage must be == 100 for proper distribution.",
        "params": {
          "lpPercentage_": "percentage for the liquidity",
          "platformPercentage_": "percentage for the platform",
          "stakerPercentage_": "percentage for the stakers"
        }
      },
      "setTaxAmount(uint8,uint8)": {
        "details": "it sets buyTax to the newBuyTax_ and sellTax to the newSellTax_",
        "params": {
          "newBuyTax_": "new buy tax. Cannot exceed 10.",
          "newSellTax_": "new sell tax. Cannot exceed 10."
        }
      },
      "symbol()": {
        "details": "Returns the symbol of the token, usually a shorter version of the name."
      },
      "totalSupply()": {
        "details": "See {IERC20-totalSupply}."
      },
      "transfer(address,uint256)": {
        "details": "See {IERC20-transfer}. Requirements: - `to` cannot be the zero address. - the caller must have a balance of at least `value`."
      },
      "transferFrom(address,address,uint256)": {
        "details": "See {IERC20-transferFrom}. Emits an {Approval} event indicating the updated allowance. This is not required by the EIP. See the note at the beginning of {ERC20}. NOTE: Does not update the allowance if the current allowance is the maximum `uint256`. Requirements: - `from` and `to` cannot be the zero address. - `from` must have a balance of at least `value`. - the caller must have allowance for ``from``'s tokens of at least `value`."
      },
      "transferOwnership(address)": {
        "details": "Transfers ownership of the contract to a new account (`newOwner`). Can only be called by the current owner."
      },
      "updateStakingContracts(address[],uint8[])": {
        "details": "Deletes any previous _stakingContracts.",
        "params": {
          "percentages_": "The array of Staking contract distribution perccentages",
          "stakingContracts_": "The array of Staking contract addresses"
        }
      }
    },
    "version": 1
  },
  "userdoc": {
    "kind": "user",
    "methods": {
      "changeTaxDistributionThreshold(uint256)": {
        "notice": "Changes the balance threshold for when tax is distributed."
      },
      "distributeTax()": {
        "notice": "Distributes the collected tax to the platform, stakers and liquidity."
      },
      "getStakingContracts()": {
        "notice": "Retrieves the Staking contract address and their percentages."
      },
      "isTaxEnabled()": {
        "notice": "Returns if the tax is enabled or not. Tax only exists on market pairs."
      },
      "isTaxExempt(address)": {
        "notice": "Returns if an address is excluded from tax."
      },
      "isTaxRenounced()": {
        "notice": "Returns if tax is renounced, meaning that the taxes cannot be changed."
      },
      "openTrading()": {
        "notice": "Opens the trading, enabling taxes. Can only be called once."
      },
      "renounceTax()": {
        "notice": "Renounces the tax, meaning that it can never be changed again."
      },
      "rescueStuckETH(uint256)": {
        "notice": "Rescues any ETH that are stuck in the contract."
      },
      "setDistributionPercentage(uint8,uint8,uint8)": {
        "notice": "Updates the tax distribution percentage between platform, stakers and liquidity."
      },
      "setLpAddress(address)": {
        "notice": "Sets the address that will receive LP tokens from liquidity adds."
      },
      "setMarketPair(address,bool)": {
        "notice": "setMarketPair updates the market pair status. Taxes apply from/to market pairs."
      },
      "setTaxAddress(address)": {
        "notice": "Set the receiver of platform taxes."
      },
      "setTaxAmount(uint8,uint8)": {
        "notice": "Sets the tax percentages for buy and sell. Can only be called before tax is renounced."
      },
      "setTaxEnabled(bool)": {
        "notice": "Toggles if tax is enabled or not."
      },
      "setTaxExempt(address,bool)": {
        "notice": "Sets an address's tax exempt status."
      },
      "updateStakingContracts(address[],uint8[])": {
        "notice": "Sets the staking contracts and their respective percentages. Percentages must add up to 100."
      },
      "updateUniswapRouter(address)": {
        "notice": "Sets the Uniswap router address to use for swapping taxes and adding liquidity."
      }
    },
    "version": 1
  }
}