{
  "contractName": "BasedSigmaStaking",
  "abi": [
    {
      "inputs": [
        {
          "internalType": "address",
          "name": "_basedSigmaTokenAddress",
          "type": "address"
        }
      ],
      "stateMutability": "nonpayable",
      "type": "constructor"
    },
    {
      "inputs": [
        {
          "internalType": "address",
          "name": "target",
          "type": "address"
        }
      ],
      "name": "AddressEmptyCode",
      "type": "error"
    },
    {
      "inputs": [
        {
          "internalType": "address",
          "name": "account",
          "type": "address"
        }
      ],
      "name": "AddressInsufficientBalance",
      "type": "error"
    },
    {
      "inputs": [],
      "name": "FailedInnerCall",
      "type": "error"
    },
    {
      "inputs": [
        {
          "internalType": "address",
          "name": "owner",
          "type": "address"
        }
      ],
      "name": "OwnableInvalidOwner",
      "type": "error"
    },
    {
      "inputs": [
        {
          "internalType": "address",
          "name": "account",
          "type": "address"
        }
      ],
      "name": "OwnableUnauthorizedAccount",
      "type": "error"
    },
    {
      "inputs": [
        {
          "internalType": "address",
          "name": "token",
          "type": "address"
        }
      ],
      "name": "SafeERC20FailedOperation",
      "type": "error"
    },
    {
      "anonymous": false,
      "inputs": [
        {
          "indexed": false,
          "internalType": "address",
          "name": "staker",
          "type": "address"
        },
        {
          "indexed": false,
          "internalType": "uint256",
          "name": "amount",
          "type": "uint256"
        }
      ],
      "name": "Deposit",
      "type": "event"
    },
    {
      "anonymous": false,
      "inputs": [],
      "name": "DepositsPaused",
      "type": "event"
    },
    {
      "anonymous": false,
      "inputs": [],
      "name": "DepositsUnpaused",
      "type": "event"
    },
    {
      "anonymous": false,
      "inputs": [
        {
          "indexed": true,
          "internalType": "address",
          "name": "previousOwner",
          "type": "address"
        },
        {
          "indexed": true,
          "internalType": "address",
          "name": "newOwner",
          "type": "address"
        }
      ],
      "name": "OwnershipTransferred",
      "type": "event"
    },
    {
      "anonymous": false,
      "inputs": [
        {
          "indexed": false,
          "internalType": "address",
          "name": "staker",
          "type": "address"
        },
        {
          "indexed": false,
          "internalType": "uint256",
          "name": "amount",
          "type": "uint256"
        }
      ],
      "name": "Withdraw",
      "type": "event"
    },
    {
      "inputs": [],
      "name": "amountOfStakers",
      "outputs": [
        {
          "internalType": "uint256",
          "name": "",
          "type": "uint256"
        }
      ],
      "stateMutability": "view",
      "type": "function"
    },
    {
      "inputs": [],
      "name": "basedSigmaTokenAddress",
      "outputs": [
        {
          "internalType": "address",
          "name": "",
          "type": "address"
        }
      ],
      "stateMutability": "view",
      "type": "function"
    },
    {
      "inputs": [],
      "name": "minimumDepositAmount",
      "outputs": [
        {
          "internalType": "uint256",
          "name": "",
          "type": "uint256"
        }
      ],
      "stateMutability": "view",
      "type": "function"
    },
    {
      "inputs": [],
      "name": "openToDeposits",
      "outputs": [
        {
          "internalType": "bool",
          "name": "",
          "type": "bool"
        }
      ],
      "stateMutability": "view",
      "type": "function"
    },
    {
      "inputs": [],
      "name": "owner",
      "outputs": [
        {
          "internalType": "address",
          "name": "",
          "type": "address"
        }
      ],
      "stateMutability": "view",
      "type": "function"
    },
    {
      "inputs": [],
      "name": "renounceOwnership",
      "outputs": [],
      "stateMutability": "nonpayable",
      "type": "function"
    },
    {
      "inputs": [
        {
          "internalType": "address",
          "name": "",
          "type": "address"
        }
      ],
      "name": "shareHoldings",
      "outputs": [
        {
          "internalType": "uint256",
          "name": "",
          "type": "uint256"
        }
      ],
      "stateMutability": "view",
      "type": "function"
    },
    {
      "inputs": [],
      "name": "totalShares",
      "outputs": [
        {
          "internalType": "uint256",
          "name": "",
          "type": "uint256"
        }
      ],
      "stateMutability": "view",
      "type": "function"
    },
    {
      "inputs": [
        {
          "internalType": "address",
          "name": "newOwner",
          "type": "address"
        }
      ],
      "name": "transferOwnership",
      "outputs": [],
      "stateMutability": "nonpayable",
      "type": "function"
    },
    {
      "inputs": [
        {
          "internalType": "uint256",
          "name": "minimumDepositAmount_",
          "type": "uint256"
        }
      ],
      "name": "setMinimumDeposit",
      "outputs": [],
      "stateMutability": "nonpayable",
      "type": "function"
    },
    {
      "inputs": [],
      "name": "pauseNewDeposits",
      "outputs": [],
      "stateMutability": "nonpayable",
      "type": "function"
    },
    {
      "inputs": [],
      "name": "unpauseNewDeposits",
      "outputs": [],
      "stateMutability": "nonpayable",
      "type": "function"
    },
    {
      "inputs": [
        {
          "internalType": "uint256",
          "name": "stakeAmount_",
          "type": "uint256"
        }
      ],
      "name": "stakeTokens",
      "outputs": [],
      "stateMutability": "nonpayable",
      "type": "function"
    },
    {
      "inputs": [],
      "name": "unstakeAll",
      "outputs": [
        {
          "internalType": "uint256",
          "name": "",
          "type": "uint256"
        }
      ],
      "stateMutability": "nonpayable",
      "type": "function"
    },
    {
      "inputs": [
        {
          "internalType": "uint256",
          "name": "unstakeAmount_",
          "type": "uint256"
        }
      ],
      "name": "unstakeTokens",
      "outputs": [],
      "stateMutability": "nonpayable",
      "type": "function"
    },
    {
      "inputs": [
        {
          "internalType": "address",
          "name": "staker_",
          "type": "address"
        }
      ],
      "name": "getStakedValue",
      "outputs": [
        {
          "internalType": "uint256",
          "name": "",
          "type": "uint256"
        }
      ],
      "stateMutability": "view",
      "type": "function"
    }
  ],
  "bytecode": "0x60a06040525f600255670de0b6b3a7640000614e206200002091906200022b565b6003555f600455600160055f6101000a81548160ff0219169083151502179055503480156200004d575f80fd5b5060405162001b8538038062001b858339818101604052810190620000739190620002da565b335f73ffffffffffffffffffffffffffffffffffffffff168173ffffffffffffffffffffffffffffffffffffffff1603620000e7575f6040517f1e4fbdf7000000000000000000000000000000000000000000000000000000008152600401620000de91906200031b565b60405180910390fd5b620000f8816200013460201b60201c565b508073ffffffffffffffffffffffffffffffffffffffff1660808173ffffffffffffffffffffffffffffffffffffffff16815250505062000336565b5f805f9054906101000a900473ffffffffffffffffffffffffffffffffffffffff169050815f806101000a81548173ffffffffffffffffffffffffffffffffffffffff021916908373ffffffffffffffffffffffffffffffffffffffff1602179055508173ffffffffffffffffffffffffffffffffffffffff168173ffffffffffffffffffffffffffffffffffffffff167f8be0079c531659141344cd1fd0a4f28419497f9722a3daafe3b4186f6b6457e060405160405180910390a35050565b5f819050919050565b7f4e487b71000000000000000000000000000000000000000000000000000000005f52601160045260245ffd5b5f6200023782620001f5565b91506200024483620001f5565b92508282026200025481620001f5565b915082820484148315176200026e576200026d620001fe565b5b5092915050565b5f80fd5b5f73ffffffffffffffffffffffffffffffffffffffff82169050919050565b5f620002a48262000279565b9050919050565b620002b68162000298565b8114620002c1575f80fd5b50565b5f81519050620002d481620002ab565b92915050565b5f60208284031215620002f257620002f162000275565b5b5f6200030184828501620002c4565b91505092915050565b620003158162000298565b82525050565b5f602082019050620003305f8301846200030a565b92915050565b608051611805620003805f395f818161038d015281816104b1015281816105070152818161059a0152818161071a01528181610860015281816109350152610b6c01526118055ff3fe608060405234801561000f575f80fd5b50600436106100fe575f3560e01c8063715018a6116100955780639243fbcd116100645780639243fbcd1461023c578063c7cd806e1461025a578063e78ec42e1461028a578063f2fde38b146102a6576100fe565b8063715018a6146101ee5780637547c7a3146101f8578063840a1873146102145780638da5cb5b1461021e576100fe565b80633a98ef39116100d15780633a98ef39146101785780635fe7187514610196578063608e4dd0146101b45780636861c302146101d0576100fe565b8063080c279a146101025780631878451a14610120578063269718831461015057806335322f371461015a575b5f80fd5b61010a6102c2565b60405161011791906110fe565b60405180910390f35b61013a60048036038101906101359190611175565b6102c8565b60405161014791906110fe565b60405180910390f35b6101586102dd565b005b610162610300565b60405161016f91906110fe565b60405180910390f35b6101806104ff565b60405161018d91906110fe565b60405180910390f35b61019e610505565b6040516101ab91906111af565b60405180910390f35b6101ce60048036038101906101c991906111f2565b610529565b005b6101d861079e565b6040516101e59190611237565b60405180910390f35b6101f66107b0565b005b610212600480360381019061020d91906111f2565b6107c3565b005b61021c610ad6565b005b610226610afa565b60405161023391906111af565b60405180910390f35b610244610b21565b60405161025191906110fe565b60405180910390f35b610274600480360381019061026f9190611175565b610b27565b60405161028191906110fe565b60405180910390f35b6102a4600480360381019061029f91906111f2565b610c2b565b005b6102c060048036038101906102bb9190611175565b610c50565b005b60035481565b6001602052805f5260405f205f915090505481565b6102e5610cd4565b5f60055f6101000a81548160ff021916908315150217905550565b5f8060025490505f60015f3373ffffffffffffffffffffffffffffffffffffffff1673ffffffffffffffffffffffffffffffffffffffff1681526020019081526020015f205490505f811161038a576040517f08c379a0000000000000000000000000000000000000000000000000000000008152600401610381906112d0565b60405180910390fd5b5f7f000000000000000000000000000000000000000000000000000000000000000073ffffffffffffffffffffffffffffffffffffffff166370a08231306040518263ffffffff1660e01b81526004016103e491906111af565b602060405180830381865afa1580156103ff573d5f803e3d5ffd5b505050506040513d601f19601f820116820180604052508101906104239190611302565b90505f838383610433919061135a565b61043d91906113c8565b90505f60015f3373ffffffffffffffffffffffffffffffffffffffff1673ffffffffffffffffffffffffffffffffffffffff1681526020019081526020015f2081905550828461048d91906113f8565b60028190555060045f8154809291906104a59061142b565b91905055506104f533827f000000000000000000000000000000000000000000000000000000000000000073ffffffffffffffffffffffffffffffffffffffff16610d5b9092919063ffffffff16565b8094505050505090565b60025481565b7f000000000000000000000000000000000000000000000000000000000000000081565b5f61053333610b27565b905080821115610578576040517f08c379a000000000000000000000000000000000000000000000000000000000815260040161056f906114c2565b60405180910390fd5b670de0b6b3a7640000828261058d91906113f8565b1015610597578091505b5f7f000000000000000000000000000000000000000000000000000000000000000073ffffffffffffffffffffffffffffffffffffffff166370a08231306040518263ffffffff1660e01b81526004016105f191906111af565b602060405180830381865afa15801561060c573d5f803e3d5ffd5b505050506040513d601f19601f820116820180604052508101906106309190611302565b90505f8160025485610642919061135a565b61064c91906113c8565b90505f60015f3373ffffffffffffffffffffffffffffffffffffffff1673ffffffffffffffffffffffffffffffffffffffff1681526020019081526020015f20549050818161069b91906113f8565b60015f3373ffffffffffffffffffffffffffffffffffffffff1673ffffffffffffffffffffffffffffffffffffffff1681526020019081526020015f20819055508160025f8282546106ed91906113f8565b925050819055508181036107135760045f81548092919061070d9061142b565b91905055505b61075e33867f000000000000000000000000000000000000000000000000000000000000000073ffffffffffffffffffffffffffffffffffffffff16610d5b9092919063ffffffff16565b7f884edad9ce6fa2440d8a54cc123490eb96d2768479d49ff9c7366125a9424364338660405161078f9291906114e0565b60405180910390a15050505050565b60055f9054906101000a900460ff1681565b6107b8610cd4565b6107c15f610dda565b565b6001151560055f9054906101000a900460ff16151514610818576040517f08c379a000000000000000000000000000000000000000000000000000000000815260040161080f9061159d565b60405180910390fd5b60035481101561085d576040517f08c379a00000000000000000000000000000000000000000000000000000000081526004016108549061162b565b60405180910390fd5b5f7f000000000000000000000000000000000000000000000000000000000000000073ffffffffffffffffffffffffffffffffffffffff166370a08231306040518263ffffffff1660e01b81526004016108b791906111af565b602060405180830381865afa1580156108d2573d5f803e3d5ffd5b505050506040513d601f19601f820116820180604052508101906108f69190611302565b90505f60025490505f8082036109195782846109129190611649565b9050610933565b828285610926919061135a565b61093091906113c8565b90505b7f000000000000000000000000000000000000000000000000000000000000000073ffffffffffffffffffffffffffffffffffffffff166323b872dd3330876040518463ffffffff1660e01b81526004016109909392919061167c565b6020604051808303815f875af11580156109ac573d5f803e3d5ffd5b505050506040513d601f19601f820116820180604052508101906109d091906116db565b505f60015f3373ffffffffffffffffffffffffffffffffffffffff1673ffffffffffffffffffffffffffffffffffffffff1681526020019081526020015f205490508181610a1e9190611649565b60015f3373ffffffffffffffffffffffffffffffffffffffff1673ffffffffffffffffffffffffffffffffffffffff1681526020019081526020015f20819055508160025f828254610a709190611649565b925050819055505f8103610a965760045f815480929190610a9090611706565b91905055505b7fe1fffcc4923d04b559f4d29a8bfc6cda04eb5b0d3c460751c2402c5c5cc9109c3386604051610ac79291906114e0565b60405180910390a15050505050565b610ade610cd4565b600160055f6101000a81548160ff021916908315150217905550565b5f805f9054906101000a900473ffffffffffffffffffffffffffffffffffffffff16905090565b60045481565b5f8060015f8473ffffffffffffffffffffffffffffffffffffffff1673ffffffffffffffffffffffffffffffffffffffff1681526020019081526020015f205490505f7f000000000000000000000000000000000000000000000000000000000000000073ffffffffffffffffffffffffffffffffffffffff166370a08231306040518263ffffffff1660e01b8152600401610bc391906111af565b602060405180830381865afa158015610bde573d5f803e3d5ffd5b505050506040513d601f19601f82011682018060405250810190610c029190611302565b90505f6002548383610c14919061135a565b610c1e91906113c8565b9050809350505050919050565b610c33610cd4565b670de0b6b3a764000081610c47919061135a565b60038190555050565b610c58610cd4565b5f73ffffffffffffffffffffffffffffffffffffffff168173ffffffffffffffffffffffffffffffffffffffff1603610cc8575f6040517f1e4fbdf7000000000000000000000000000000000000000000000000000000008152600401610cbf91906111af565b60405180910390fd5b610cd181610dda565b50565b610cdc610e9b565b73ffffffffffffffffffffffffffffffffffffffff16610cfa610afa565b73ffffffffffffffffffffffffffffffffffffffff1614610d5957610d1d610e9b565b6040517f118cdaa7000000000000000000000000000000000000000000000000000000008152600401610d5091906111af565b60405180910390fd5b565b610dd5838473ffffffffffffffffffffffffffffffffffffffff1663a9059cbb8585604051602401610d8e9291906114e0565b604051602081830303815290604052915060e01b6020820180517bffffffffffffffffffffffffffffffffffffffffffffffffffffffff8381831617835250505050610ea2565b505050565b5f805f9054906101000a900473ffffffffffffffffffffffffffffffffffffffff169050815f806101000a81548173ffffffffffffffffffffffffffffffffffffffff021916908373ffffffffffffffffffffffffffffffffffffffff1602179055508173ffffffffffffffffffffffffffffffffffffffff168173ffffffffffffffffffffffffffffffffffffffff167f8be0079c531659141344cd1fd0a4f28419497f9722a3daafe3b4186f6b6457e060405160405180910390a35050565b5f33905090565b5f610ecc828473ffffffffffffffffffffffffffffffffffffffff16610f3790919063ffffffff16565b90505f815114158015610ef0575080806020019051810190610eee91906116db565b155b15610f3257826040517f5274afe7000000000000000000000000000000000000000000000000000000008152600401610f2991906111af565b60405180910390fd5b505050565b6060610f4483835f610f4c565b905092915050565b606081471015610f9357306040517fcd786059000000000000000000000000000000000000000000000000000000008152600401610f8a91906111af565b60405180910390fd5b5f808573ffffffffffffffffffffffffffffffffffffffff168486604051610fbb91906117b9565b5f6040518083038185875af1925050503d805f8114610ff5576040519150601f19603f3d011682016040523d82523d5f602084013e610ffa565b606091505b509150915061100a868383611015565b925050509392505050565b60608261102a57611025826110a2565b61109a565b5f825114801561105057505f8473ffffffffffffffffffffffffffffffffffffffff163b145b1561109257836040517f9996b31500000000000000000000000000000000000000000000000000000000815260040161108991906111af565b60405180910390fd5b81905061109b565b5b9392505050565b5f815111156110b45780518082602001fd5b6040517f1425ea4200000000000000000000000000000000000000000000000000000000815260040160405180910390fd5b5f819050919050565b6110f8816110e6565b82525050565b5f6020820190506111115f8301846110ef565b92915050565b5f80fd5b5f73ffffffffffffffffffffffffffffffffffffffff82169050919050565b5f6111448261111b565b9050919050565b6111548161113a565b811461115e575f80fd5b50565b5f8135905061116f8161114b565b92915050565b5f6020828403121561118a57611189611117565b5b5f61119784828501611161565b91505092915050565b6111a98161113a565b82525050565b5f6020820190506111c25f8301846111a0565b92915050565b6111d1816110e6565b81146111db575f80fd5b50565b5f813590506111ec816111c8565b92915050565b5f6020828403121561120757611206611117565b5b5f611214848285016111de565b91505092915050565b5f8115159050919050565b6112318161121d565b82525050565b5f60208201905061124a5f830184611228565b92915050565b5f82825260208201905092915050565b7f42617365645369676d615374616b696e673a204e6f2073686172657320746f205f8201527f756e7374616b6521000000000000000000000000000000000000000000000000602082015250565b5f6112ba602883611250565b91506112c582611260565b604082019050919050565b5f6020820190508181035f8301526112e7816112ae565b9050919050565b5f815190506112fc816111c8565b92915050565b5f6020828403121561131757611316611117565b5b5f611324848285016112ee565b91505092915050565b7f4e487b71000000000000000000000000000000000000000000000000000000005f52601160045260245ffd5b5f611364826110e6565b915061136f836110e6565b925082820261137d816110e6565b915082820484148315176113945761139361132d565b5b5092915050565b7f4e487b71000000000000000000000000000000000000000000000000000000005f52601260045260245ffd5b5f6113d2826110e6565b91506113dd836110e6565b9250826113ed576113ec61139b565b5b828204905092915050565b5f611402826110e6565b915061140d836110e6565b92508282039050818111156114255761142461132d565b5b92915050565b5f611435826110e6565b91505f82036114475761144661132d565b5b600182039050919050565b7f42617365645369676d615374616b696e673a204e6f7420656e6f7567682073745f8201527f616b656421000000000000000000000000000000000000000000000000000000602082015250565b5f6114ac602583611250565b91506114b782611452565b604082019050919050565b5f6020820190508181035f8301526114d9816114a0565b9050919050565b5f6040820190506114f35f8301856111a0565b61150060208301846110ef565b9392505050565b7f42617365645369676d615374616b696e673a205468697320636f6e74726163745f8201527f206973206e6f206c6f6e67657220616363657074696e67206e6577207374616b60208201527f65732e2055736572732063616e207374696c6c2077697468647261772e000000604082015250565b5f611587605d83611250565b915061159282611507565b606082019050919050565b5f6020820190508181035f8301526115b48161157b565b9050919050565b7f42617365645369676d615374616b696e673a20506c65617365207374616b65205f8201527f61626f7665204d696e696d756d204465706f73697420416d6f756e7421000000602082015250565b5f611615603d83611250565b9150611620826115bb565b604082019050919050565b5f6020820190508181035f83015261164281611609565b9050919050565b5f611653826110e6565b915061165e836110e6565b92508282019050808211156116765761167561132d565b5b92915050565b5f60608201905061168f5f8301866111a0565b61169c60208301856111a0565b6116a960408301846110ef565b949350505050565b6116ba8161121d565b81146116c4575f80fd5b50565b5f815190506116d5816116b1565b92915050565b5f602082840312156116f0576116ef611117565b5b5f6116fd848285016116c7565b91505092915050565b5f611710826110e6565b91507fffffffffffffffffffffffffffffffffffffffffffffffffffffffffffffffff82036117425761174161132d565b5b600182019050919050565b5f81519050919050565b5f81905092915050565b5f5b8381101561177e578082015181840152602081019050611763565b5f8484015250505050565b5f6117938261174d565b61179d8185611757565b93506117ad818560208601611761565b80840191505092915050565b5f6117c48284611789565b91508190509291505056fea26469706673582212209e3beb7d286b2ff5b3737f1dd5c9abd6b186cdb44e4bf16dfb80a2e07816af2264736f6c63430008150033",
  "immutableReferences": {
    "2030": [
      {
        "length": 32,
        "start": 909
      },
      {
        "length": 32,
        "start": 1201
      },
      {
        "length": 32,
        "start": 1287
      },
      {
        "length": 32,
        "start": 1434
      },
      {
        "length": 32,
        "start": 1818
      },
      {
        "length": 32,
        "start": 2144
      },
      {
        "length": 32,
        "start": 2357
      },
      {
        "length": 32,
        "start": 2924
      }
    ]
  },
  "source": "// SPDX-License-Identifier: MIT\r\npragma solidity ^0.8.20;\r\n\r\nimport \"@openzeppelin/contracts/token/ERC20/IERC20.sol\";\r\nimport \"@openzeppelin/contracts/token/ERC20/utils/SafeERC20.sol\";\r\nimport \"@openzeppelin/contracts/access/Ownable.sol\";\r\n\r\ncontract BasedSigmaStaking is Ownable {\r\n    using SafeERC20 for IERC20;\r\n    address public immutable basedSigmaTokenAddress;\r\n\r\n    mapping(address => uint256) public shareHoldings;\r\n    uint256 public totalShares = 0;\r\n\r\n    uint256 private constant base = 10 ** 18;\r\n    uint256 public minimumDepositAmount = 20_000 * base;\r\n\r\n    uint256 public amountOfStakers = 0;\r\n\r\n    // openToDeposits allows/disallows new deposits. Withdrawals are always allowed.\r\n    bool public openToDeposits = true;\r\n\r\n    event Deposit(address staker, uint256 amount);\r\n    event Withdraw(address staker, uint256 amount);\r\n\r\n    event DepositsPaused();\r\n    event DepositsUnpaused();\r\n\r\n    constructor(address _basedSigmaTokenAddress) Ownable(msg.sender) {\r\n        basedSigmaTokenAddress = _basedSigmaTokenAddress;\r\n    }\r\n\r\n    /// @notice  Sets the minimum amount of tokens required to stake.\r\n    /// @param minimumDepositAmount_ provide in without adding the decimals for the token.\r\n    function setMinimumDeposit(\r\n        uint256 minimumDepositAmount_\r\n    ) external onlyOwner {\r\n        minimumDepositAmount = minimumDepositAmount_ * base;\r\n    }\r\n\r\n    /// @notice pauseNewDeposits pauses deposits - not allowing new deposits.\r\n    function pauseNewDeposits() external onlyOwner {\r\n        openToDeposits = false;\r\n    }\r\n\r\n    /// @notice unpauseNewDeposits unpauses deposits - allowing new deposits.\r\n    function unpauseNewDeposits() external onlyOwner {\r\n        openToDeposits = true;\r\n    }\r\n\r\n    /// @notice Deposits and stakes the specified token. Staking contract must be approved for magnet token.\r\n    /// @dev Calculates shares based on tvl and staked amount. Adds shares to user. TVL must be increased after share calculation.\r\n    /// @param stakeAmount_ amount of tokens to stake. Must be above minimumDepositAmount.\r\n    function stakeTokens(uint256 stakeAmount_) external {\r\n        require(\r\n            openToDeposits == true,\r\n            \"BasedSigmaStaking: This contract is no longer accepting new stakes. Users can still withdraw.\"\r\n        );\r\n        require(\r\n            stakeAmount_ >= minimumDepositAmount,\r\n            \"BasedSigmaStaking: Please stake above Minimum Deposit Amount!\"\r\n        );\r\n        uint256 tvl = IERC20(basedSigmaTokenAddress).balanceOf(address(this));\r\n        uint256 tShares = totalShares;\r\n\r\n        uint256 shares;\r\n        if (tShares == 0) {\r\n            // Staking from empty. If there's any tokens, assign them to the staker.\r\n            shares = stakeAmount_ + tvl;\r\n        } else {\r\n            shares = (stakeAmount_ * tShares) / tvl;\r\n        }\r\n\r\n        IERC20(basedSigmaTokenAddress).transferFrom(\r\n            msg.sender,\r\n            address(this),\r\n            stakeAmount_\r\n        );\r\n\r\n        uint256 currentShares = shareHoldings[msg.sender];\r\n        shareHoldings[msg.sender] = currentShares + shares;\r\n        totalShares += shares;\r\n        if (currentShares == 0) {\r\n            amountOfStakers++;\r\n        }\r\n\r\n        emit Deposit(msg.sender, stakeAmount_);\r\n    }\r\n\r\n    /// @notice Unstakes all tokens and withdraws them to the user's wallet.\r\n    /// @return value of tokens unstaked.\r\n    function unstakeAll() external returns (uint256) {\r\n        uint256 tShares = totalShares;\r\n\r\n        uint256 shares = shareHoldings[msg.sender];\r\n        require(shares > 0, \"BasedSigmaStaking: No shares to unstake!\");\r\n        uint256 tvl = IERC20(basedSigmaTokenAddress).balanceOf(address(this));\r\n\r\n        uint256 value = (tvl * shares) / tShares;\r\n\r\n        shareHoldings[msg.sender] = 0;\r\n        totalShares = tShares - shares;\r\n        amountOfStakers--;\r\n\r\n        IERC20(basedSigmaTokenAddress).safeTransfer(msg.sender, value);\r\n\r\n        return value;\r\n    }\r\n\r\n    /// @notice Unstake specified amount of tokens and withdraw them to the user's wallet. Will round up to balance if difference is < 1 token.\r\n    function unstakeTokens(uint256 unstakeAmount_) public {\r\n        uint256 stakerHoldings = getStakedValue(msg.sender);\r\n        require(\r\n            unstakeAmount_ <= stakerHoldings,\r\n            \"BasedSigmaStaking: Not enough staked!\"\r\n        );\r\n\r\n        // If the amount left would be less than < 1 token, round the withdrawal to everything.\r\n        if (stakerHoldings - unstakeAmount_ < base) {\r\n            unstakeAmount_ = stakerHoldings;\r\n        }\r\n\r\n        uint256 tvl = IERC20(basedSigmaTokenAddress).balanceOf(address(this));\r\n        // uint256 sharesRemoved = (unstakeAmount_ / tvl) * totalShares;\r\n        uint256 sharesRemoved = (unstakeAmount_ * totalShares) / tvl;\r\n\r\n        uint256 currentShares = shareHoldings[msg.sender];\r\n        shareHoldings[msg.sender] = currentShares - sharesRemoved;\r\n        totalShares -= sharesRemoved;\r\n\r\n        if (currentShares == sharesRemoved) {\r\n            amountOfStakers--;\r\n        }\r\n\r\n        IERC20(basedSigmaTokenAddress).safeTransfer(msg.sender, unstakeAmount_);\r\n\r\n        emit Withdraw(msg.sender, unstakeAmount_);\r\n    }\r\n\r\n    /// @notice Retrieves the user's current staked value.\r\n    /// @dev it calculates the user stake value using their shares and tvl.\r\n    /// @param staker_ Address of the user to check staked value for.\r\n    function getStakedValue(address staker_) public view returns (uint256) {\r\n        uint256 stakerShares = shareHoldings[staker_];\r\n        uint256 tvl = IERC20(basedSigmaTokenAddress).balanceOf(address(this));\r\n        uint256 value = (tvl * stakerShares) / totalShares;\r\n\r\n        return value;\r\n    }\r\n}\r\n",
  "sourcePath": "C:\\Users\\Baby\\Desktop\\BasedsigmaContracts\\contracts\\BasedSigmaStaking.sol",
  "compiler": {
    "name": "solc",
    "version": "0.8.21+commit.d9974bed.Emscripten.clang"
  },
  "schemaVersion": "3.4.16",
  "updatedAt": "2024-04-20T12:48:56.211Z",
  "devdoc": {
    "errors": {
      "AddressEmptyCode(address)": [
        {
          "details": "There's no code at `target` (it is not a contract)."
        }
      ],
      "AddressInsufficientBalance(address)": [
        {
          "details": "The ETH balance of the account is not enough to perform the operation."
        }
      ],
      "FailedInnerCall()": [
        {
          "details": "A call to an address target failed. The target may have reverted."
        }
      ],
      "OwnableInvalidOwner(address)": [
        {
          "details": "The owner is not a valid owner account. (eg. `address(0)`)"
        }
      ],
      "OwnableUnauthorizedAccount(address)": [
        {
          "details": "The caller account is not authorized to perform an operation."
        }
      ],
      "SafeERC20FailedOperation(address)": [
        {
          "details": "An operation with an ERC20 token failed."
        }
      ]
    },
    "kind": "dev",
    "methods": {
      "getStakedValue(address)": {
        "details": "it calculates the user stake value using their shares and tvl.",
        "params": {
          "staker_": "Address of the user to check staked value for."
        }
      },
      "owner()": {
        "details": "Returns the address of the current owner."
      },
      "renounceOwnership()": {
        "details": "Leaves the contract without owner. It will not be possible to call `onlyOwner` functions. Can only be called by the current owner. NOTE: Renouncing ownership will leave the contract without an owner, thereby disabling any functionality that is only available to the owner."
      },
      "setMinimumDeposit(uint256)": {
        "params": {
          "minimumDepositAmount_": "provide in without adding the decimals for the token."
        }
      },
      "stakeTokens(uint256)": {
        "details": "Calculates shares based on tvl and staked amount. Adds shares to user. TVL must be increased after share calculation.",
        "params": {
          "stakeAmount_": "amount of tokens to stake. Must be above minimumDepositAmount."
        }
      },
      "transferOwnership(address)": {
        "details": "Transfers ownership of the contract to a new account (`newOwner`). Can only be called by the current owner."
      },
      "unstakeAll()": {
        "returns": {
          "_0": "value of tokens unstaked."
        }
      }
    },
    "version": 1
  },
  "userdoc": {
    "kind": "user",
    "methods": {
      "getStakedValue(address)": {
        "notice": "Retrieves the user's current staked value."
      },
      "pauseNewDeposits()": {
        "notice": "pauseNewDeposits pauses deposits - not allowing new deposits."
      },
      "setMinimumDeposit(uint256)": {
        "notice": "Sets the minimum amount of tokens required to stake."
      },
      "stakeTokens(uint256)": {
        "notice": "Deposits and stakes the specified token. Staking contract must be approved for magnet token."
      },
      "unpauseNewDeposits()": {
        "notice": "unpauseNewDeposits unpauses deposits - allowing new deposits."
      },
      "unstakeAll()": {
        "notice": "Unstakes all tokens and withdraws them to the user's wallet."
      },
      "unstakeTokens(uint256)": {
        "notice": "Unstake specified amount of tokens and withdraw them to the user's wallet. Will round up to balance if difference is < 1 token."
      }
    },
    "version": 1
  }
}